S01100002E2E2F50726F746575732E73313966
S32D0000C000000000205DC2000011C3000017C300001DC3000023C3000029C3000000000000000000000000000073
S32D0000C028000000002FC3000035C30000000000003BC3000041C3000019DD000025DD000031DD00003DDD0000DE
S32D0000C05049DD000055DD000061DD00006DDD000079DD000085DD000091DD00009DDD0000A9DD0000B5DD00002A
S32D0000C078C1DD0000CDDD0000D9DD0000E5DD0000F1DD0000FDDD000009DE000015DE000021DE00002DDE00004E
S32D0000C0A039DE000045DE000051DE00005DDE000069DE000075DE000081DE00008DDE000099DE0000A5DE000070
S32D0000C0C8B1DE0000BDDE0000C9DE0000D5DE0000E1DE0000EDDE0000F9DE000005DF000011DF00001DDF000095
S32D0000C0F029DF0000CD33010035DF000041DF00004DDF000059DF000065DF000071DF00007DDF000089DF000029
S32D0000C11895DF0000A1DF0000ADDF0000B9DF0000C5DF0000D1DF0000DDDF0000E9DF0000F5DF000001E0000054
S32D0000C1400DE0000019E0000025E0000031E00000010B01003DE0000049E0000055E0000061E000006DE00000BF
S32D0000C16879E0000085E0000091E000009DE00000A9E00000B5E00000C1E00000CDE00000D9E00000E5E0000013
S32D0000C190F1E00000FDE0000009E10000F5060100BD050100590601009DDA00009507010015E1000021E10000BE
S32D0000C1B82DE1000014C5010000000020D016000014C501000000FF1F00000000D01600200C0600000000FF1F3D
S32D0000C1E00000000080B489B000AFF860B9607A60BB68FB61FB68BB6100237B617A697B689A420BD2BA69131DFB
S32D0000C208BB61FB69191DF96112681A607B6904337B61EFE700BF2437BD4680BC704780B485B000AF786039609E
S32D0000C2307B68FB600023BB60BA683B689A4208D2FB681A1DFA6000221A60BB680433BB60F2E700BF1437BD46FE
S32D0000C25880BC704780B586B000AF72B6234B4CF220521A80214B4DF628121A80204B4FF4E9721A801F4B7B615F
S32D0000C2807B691F4A934214D27B691A1D7A611B683B617B691A1D7A611B68FB607B691A1D7A611B68BB60BA68E9
S32D0000C2A8F9683869FFF79AFFE6E77B69134A93420ED27B691A1D7A611B68FB607B691A1D7A611B68BB60B9688B
S32D0000C2D0F868FFF7A8FFECE70B4B7B600B4A7B681A6009F0D9F962B601F0A0FC00F0C8F8FEE700BF0E20054056
S32D0000C2F800200540BCC10000D4C10000E4C1000008ED00E000C0000080B400AFFEE780B400AFFEE780B400AFF4
S32D0000C320FEE780B400AFFEE780B400AFFEE780B400AFFEE780B400AFFEE780B400AFFEE780B400AFFEE780B426
S32D0000C34800AFFEE7FFFFFFFFFFFFFFFFFFFFFFFFFFFFFFFFFFFFFFFFFFFFFFFFFFFFFFFFFFFFFFFFFFFFFFFF57
S32D0000C370FFFFFFFFFFFFFFFFFFFFFFFFFFFFFFFFFFFFFFFFFFFFFFFFFFFFFFFFFFFFFFFFFFFFFFFFFFFFFFFFC7
S32D0000C398FFFFFFFFFFFFFFFFFFFFFFFFFFFFFFFFFFFFFFFFFFFFFFFFFFFFFFFFFFFFFFFFFFFFFFFFFFFFFFFF9F
S32D0000C3C0FFFFFFFFFFFFFFFFFFFFFFFFFFFFFFFFFFFFFFFFFFFFFFFFFFFFFFFFFFFFFFFFFFFFFFFFFFFFFFFF77
S32D0000C3E8FFFFFFFFFFFFFFFFFFFFFFFFFFFFFFFFFFFFFFFFFFFFFFFFFFFFFFFFFFFFFFFFFFFFFFFFFEFFFFFF50
S32D0000C44010B5054C237833B9044B13B10448AFF300800123237010BDD01600200000000010C4000008B5034B47
S32D0000C4681BB103490348AFF3008008BD00000000D416002010C4000080B586B000AF00237B6100233B6103F0B3
S32D0000C490A3FD0346FB6003F09FFD0346BB6000F0BDF800237B6000233B60544800F09CFF0346002B0DD13A46ED
S32D0000C4B83B1D1946504805F029FA034683F00103DBB2002B01D0012300E00023002B0BD0484800F06EFF024644
S32D0000C4E00B46474805F073FB012003F039FDDCE703F072FD0246FB68D31A424A934294BF01230023DBB2002B31
S32D0000C50872D079693C4805F04BFB3A697B699A4205D07B693B6103F05BFD0346BB607B69082B5DD801A252F882
S32D0000C53023F000BF59C500005FC500006FC5000085C500009BC50000ABC50000BBC50000CBC50000DBC50000CB
S32D0000C55801237B6144E02A4800F00AF902467B6913447B613CE0274B1B681946244800F08BF902467B691344FA
S32D0000C5807B6131E0214B1B681946214801F042F802467B6913447B6126E01B4800F014FA02467B6913447B6199
S32D0000C5A81EE0174800F0F0FA02467B6913447B6116E0154800F094FF02467B6913447B610EE00F4800F038FB32
S32D0000C5D002467B6913447B6106E00E4801F0D6F90D4800F00FFC00BF012003F0B9FC7FE7002318461837BD46D1
S32D0000C5F880BD00BFF0160020841B0020BFD40100B0170020A018002008180020681700202017002080B500AFC7
S32D0000C620054B1B681946054807F076FB044B00221A600123184680BD00000020EC1B0020A0180020F0B5A5B042
S32D0000C64822AF786039607B68012B56D13B684FF6FF72934251D12B4800F084FE294E6D4606F108040FCC0FC53B
S32D0000C6700FCC0FC594E8030085E8030096E80C00234800F083FB214E6D4606F108040FCC0FC50FCC0FC594E89C
S32D0000C698030085E8030096E80C001C4801F0BAF8194E6D4606F108040FCC0FC50FCC0FC50FCC0FC594E80F00BB
S32D0000C6C085E80F0096E80C00134800F031F8104E104A10AB11464822184609F011FB6D4606F108040FCC0FC5D6
S32D0000C6E80FCC0FC50FCC0FC594E80F0085E80F0096E80C00074800F0CAFE00BF0C37BD46F0BD00BFF016002097
S32D0000C7102017002068170020B01700200818002080B500AF4FF6FF710120FFF78BFF80BD82B080B582B000AF1F
S32D0000C738786007F1100181E80C007B6800221A607B68083307F110014822184609F0D4FA7B6800221A657B68E1
S32D0000C76000225A657B6818460837BD46BDE8804002B070470000000080B584B002AF78607B681B6D052B6FD8A5
S32D0000C78801A252F823F000BFA9C70000CFC70000EFC700000FC800002FC8000055C800007B6803F1080140F607
S32D0000C7B0340300934FF00002314B084600F034FC02467B681B6D1A447B681A654CE07B6803F1080128A3D3E960
S32D0000C7D80023084600F0D4FB02467B681B6D1A447B681A653CE07B6803F108014FF00002224B084600F0ACFC00
S32D0000C80002467B681B6D1A447B681A652CE07B6803F108014FF000021B4B084600F0B4FB02467B681B6D1A4406
S32D0000C8287B681A651CE07B6803F108014FF4FA7300934FF00002134B084600F0F1FB02467B681B6D1A447B68A4
S32D0000C8501A6509E07B680833184600F0D3FA7B6800221A65012300E0002318460837BD4680BD00BFAFF30080B0
S32D0000C878CDCCCCCCCCCC284000002EC000804640000018400000594090B583B000AF786039607B681B6D062B48
S32D0000C8A07FD801A252F823F0C5C80000E5C8000005C900001DC900003DC900005DC900008FC900007B6803F1CA
S32D0000C8C808014FF000023A4B084600F0C5FB02467B681B6D1A447B681A655EE07B6803F108014FF00002334B25
S32D0000C8F0084600F005FC02467B681B6D1A447B681A654EE07B680833184600F04DFC02467B681B6D1A447B6891
S32D0000C9181A6542E07B6803F108014FF00002264B084600F02DFB02467B681B6D1A447B681A6532E07B6803F1FC
S32D0000C94008014FF000021F4B084600F0D9FB02467B681B6D1A447B681A6522E07B6803F108043B689B0018460F
S32D0000C96807F084FE10A3D3E9002307F033FD02460B46204600F070FB02467B681B6D1A447B681A6509E07B68D6
S32D0000C9900833184600F036FA7B6800221A65012300E0002318460C37BD4690BDAFF3008033333333333322406E
S32D0000C9B80080234000406940000020400040574080B584B002AF78607B681B6D0A2B00F2C38001A252F823F087
S32D0000C9E00DCA000019CA000025CA000045CA000065CA000085CA0000A5CA0000BDCA0000DDCA00002BCB000060
S32D0000CA084BCB00007B681B6D5A1C7B681A65A3E07B681B6D5A1C7B681A659DE07B6803F108014FF00002524BA6
S32D0000CA30084600F0A9FA02467B681B6D1A447B681A658DE07B6803F1080149A3D3E90023084600F055FB024696
S32D0000CA587B681B6D1A447B681A657DE07B6803F108014FF00002434B084600F089FA02467B681B6D1A447B68C4
S32D0000CA801A656DE07B6803F108014FF000023C4B084600F061FB02467B681B6D1A447B681A655DE07B680833AC
S32D0000CAA8184600F07DFB02467B681B6D1A447B681A6551E07B6803F108014FF000022F4B084600F05DFA02467E
S32D0000CAD07B681B6D1A447B681A6541E07B6803F108014FF000024FF00003CDE900234FF00002254B084600F0C1
S32D0000CAF8BBFB7B680833184600F096FC0346002B14BF01230023DBB2002B24D07B680833184600F073F97B6867
S32D0000CB201B6D5A1C7B681A6519E07B6803F108014FF00002154B084600F026FA02467B681B6D1A447B681A653C
S32D0000CB480AE07B680833184600F058F97B6800221A65012301E000BF002318460837BD4680BD00BFAFF30080EF
S32D0000CB700000000000C057400000084000003B400000594000403340000049C000003D4080B582B000AF7860BD
S32D0000CB987B681B6D032B46D801A252F823F000BFB9CB0000D9CB0000F9CB00001BCC00007B6803F108014FF007
S32D0000CBC000021D4B084600F04BFA02467B681B6D1A447B681A652AE07B6803F108014FF00002164B084600F01D
S32D0000CBE8B7FA02467B681B6D1A447B681A651AE07B6803F108014FF000024FF08043084600F0BEF902467B68BE
S32D0000CC101B6D1A447B681A6509E07B680833184600F0F0F87B6800221A65012300E0002318460837BD4680BDE9
S32D0000CC3800000C400080574080B582B000AF78607B681B6D082B00F28D8001A252F823F07DCC000089CC000042
S32D0000CC60A9CC0000C9CC0000E9CC000001CD000021CD000041CD000059CD00007B681B6D5A1C7B681A6571E063
S32D0000CC887B6803F108013AA3D3E90023084600F05FFA02467B681B6D1A447B681A6561E07B6803F108014FF078
S32D0000CCB00002334B084600F067F902467B681B6D1A447B681A6551E07B6803F108012AA3D3E90023084600F0CA
S32D0000CCD83FFA02467B681B6D1A447B681A6541E07B680833184600F05BFA02467B681B6D1A447B681A6535E018
S32D0000CD007B6803F108014FF000021E4B084600F03BF902467B681B6D1A447B681A6525E07B6803F108014FF072
S32D0000CD280002174B084600F0E7F902467B681B6D1A447B681A6515E07B680833184600F007F902467B681B6DD4
S32D0000CD501A447B681A6509E07B680833184600F051F87B6800221A65012300E0002318460837BD4680BD00BF10
S32D0000CD780000000000C0574000002E40000008400080574082B0B0B582B000AF786007F1180181E80C007B68B0
S32D0000CDA01D4607F118040FCC0FC50FCC0FC594E80F0085E80F007B683033114A0021184601F0BAF97B68383377
S32D0000CDC80D4A0121184601F0B3F97B6840330821184603F079FA7B6841331021184603F073FA7B6800225A647D
S32D0000CDF07B6818460837BD46BDE8B04002B070476666E64080B582B000AF78607B684033184603F01DFD7B6810
S32D0000CE184133184603F018FD7B6830334FF00001184601F0EDF97B6838334FF00001184601F0E6F9142003F074
S32D0000CE408FF8012318460837BD4680BD90B585B000AFF860C7E90023FB685B6C002B05D103F0BAF803461A466F
S32D0000CE68FB685A6403F0B4F80246FB685B6CD31A184607F0EBFB02460B4601210C46D7E9000107F0CFFE034667
S32D0000CE90002B01D100231C46E3B2002B07D0FB6800225A64F868FFF7ADFF034600E0002318461437BD4690BDD1
S32D0000CEB8B0B584B000AFF860C7E90023FB684033184603F0AFFC0346184607F0CFFB04460D46FB6841331846CD
S32D0000CEE003F0A4FC0346184607F0C4FB18A3D3E9002307F053FD02460B462046294607F06DFA02460B46104698
S32D0000CF0819464FF000024FF0804307F043FD02460B4601210C46D7E9000107F083FE0346002B01D100231C4611
S32D0000CF30E3B2002B04D0F868FFF764FF034600E0002318461037BD46B0BD00BFAFF3008048E17A14AE47F13F68
S32D0000CF5880B584B002AF78604FF00002064BCDE900234FF00002044B786800F07DF9002318460837BD4680BD78
S32D0000CF80000049400000000080B586B002AFF860C7E900234FF00002214BCDE900234FF000021F4BF86800F032
S32D0000CFA863F917A3D3E90023D7E9000107F0C8FB02460B46104619464FF00002174B07F0BFFB02460B4610465A
S32D0000CFD019460FA3D3E9002307F0B6FB02460B46104619460CA3D3E9002307F0D7FC02460B46F868FFF760FFA7
S32D0000CFF8034618461037BD4680BD00BFAFF30080B81E85EB51B8EE3F4EFBC912D8B4EF3F6CEC12D55B47214060
S32D0000D020000049400000484080B586B002AFF860C7E90023D7E90023CDE90023D7E90023F86800F015F9B8696C
S32D0000D04807F014FB02460B46F868FFF7FBFE034618461037BD4680BD80B586B002AFF860C7E900234FF0000216
S32D0000D070214BCDE900234FF000021F4BF86800F0F7F817A3D3E90023D7E9000107F05CFB02460B46104619466D
S32D0000D0984FF00002174B07F053FB02460B46104619460FA3D3E9002307F04AFB02460B46104619460CA3D3E9AE
S32D0000D0C0002307F06BFC02460B46F868FFF7F4FE034618461037BD4680BD00BFAFF30080B81E85EB51B8EE3F55
S32D0000D0E84EFBC912D8B4EF3F6CEC12D55B472140000049C00000484080B586B002AFF860C7E900234FF00002E1
S32D0000D1100F4BCDE900234FF000020E4BF86800F0A7F809A3D3E90023D7E9000107F00CFB02460B46F868FFF7FC
S32D0000D138BFFE034618461037BD4680BDAFF30080333333333333D73F00004940000049C080B586B002AFF8606E
S32D0000D160C7E900234FF000020C4BCDE900234FF000020B4BF86800F07BF84FF00002094BD7E9000107F0E0FADC
S32D0000D18802460B46F868FFF793FE034618461037BD4680BD000049C0000049400000D83F80B584B002AF786030
S32D0000D1B04FF000022C4BCDE900234FF000022A4B786800F055F87B68184600F031F90346002B14BF0123002304
S32D0000D1D8DBB2002B0BD04FF00002224BCDE900234FF000024FF00003786800F03DF87B68184600F02AF90346EA
S32D0000D200002B14BF01230023DBB2002B0BD04FF000024FF00003CDE900234FF00002134B786800F025F87B685D
S32D0000D228184600F001F90346002B08D07B68184600F00BF90346002B01D0012300E00023002B07D07B6800229C
S32D0000D2505A647868FFF7D6FD034600E0002318460837BD4680BD00BF000034C0000049C02DE9F04385B000AF37
S32D0000D278F860C7E90023FB6803F1300634A3D3E90023D7E9000107F05BFA02460B46104619464FF000024FF03F
S32D0000D2A0000307F09BF802460B46144683F000452D4805F031FF0346184607F0EDF902460B4627A1D1E90001EE
S32D0000D2C807F068FB02460B462046294607F038FA02460B461046194607F014FD03461946304600F08DFFFB68F4
S32D0000D2F003F138044FF000024FF00003D7E90C0107F06CF802460B4690469946164805F003FF0346184607F0F4
S32D0000D318BFF902460B4610A1D1E9000107F03AFB02460B464046494607F00AFA02460B461046194607F0E6FC2E
S32D0000D34003461946204600F05FFF00BF1437BD46BDE8F083AFF300801F85EB51B81EF13F66666666666627406B
S32D0000D368D01B002080B582B000AF78607B6828330021184603F07AFA7B6829330721184603F074FA7B682A3314
S32D0000D3901821184602F03CFE7B682B331F21184602F036FE7B682C331D21184602F030FE7B6818460837BD4626
S32D0000D3B880BD80B582B000AF78607B682833184603F066FA0346184607F062F902460B46104619460837BD46A4
S32D0000D3E080BD00000000000090B583B000AF78607B682833184603F04FFA0346184607F04BF901231C4608A3F8
S32D0000D408D3E9002307F00EFC0346002B01D100231C46E3B218460C37BD4690BDAFF30080333333333333E33F4F
S32D0000D43080B582B000AF78607B682A33184602F0C3FE034683F00103DBB218460837BD4680BD80B582B000AF4F
S32D0000D45878607B682B33184602F0B2FE034683F00103DBB218460837BD4680BD80B582B000AF78607B682C3333
S32D0000D480184602F0A1FE034683F00103DBB218460837BD4680BD82B080B582B000AF786007F1100181E80C00C7
S32D0000D4A87B68184607F110034822194608F024FC7B68483307F158014822184608F01CFC7B680022C3F8902032
S32D0000D4D07B680022C3F894207B6818460837BD46BDE8804002B0704780B582B000AF78607B68D3F89030062BDC
S32D0000D4F87FD801A252F823F01DD5000041D5000061D500007DD50000A1D50000C1D50000DDD500007B6803F18A
S32D0000D52048014FF00002374B084600F0A9F902467B68D3F890301A447B68C3F890205CE079684FF00002304BB6
S32D0000D5480846FFF71DFD02467B68D3F890301A447B68C3F890204CE07B684833184600F023FA02467B68D3F80A
S32D0000D57090301A447B68C3F890203EE07B6803F148014FF00002214B084600F079F902467B68D3F890301A4472
S32D0000D5987B68C3F890202CE079684FF000021A4B0846FFF759FD02467B68D3F890301A447B68C3F890201CE08C
S32D0000D5C07B684833184600F0F3F902467B68D3F890301A447B68C3F890200EE07B681846FFF710FC7B684833B4
S32D0000D5E8184600F0CFF97B680022C3F89020012300E0002318460837BD4680BD00005E400000104000004E400F
S32D0000D6100000284080B582B000AF786039607B68D3F890300B2B00F2D78001A252F823F061D600007DD6000086
S32D0000D638A1D60000BDD60000DDD6000001D700001BD700003BD7000061D7000085D700009FD70000BBD700008F
S32D0000D6607B684833184600F0A3F902467B68D3F890301A447B68C3F89020ADE07B6803F148014FF00002574B62
S32D0000D688084600F0F9F802467B68D3F890301A447B68C3F890209BE07B684833184600F083F902467B68D3F84A
S32D0000D6B090301A447B68C3F890208DE079684FF00002494B0846FFF75FFC02467B68D3F890301A447B68C3F86C
S32D0000D6D890207DE07B6803F148014FF00002414B084600F0C9F802467B68D3F890301A447B68C3F890206BE07E
S32D0000D7004FF000003A4902F041FC7B68D3F890305A1C7B68C3F890205EE079684FF00002344B0846FFF79CFC1D
S32D0000D72802467B68D3F890301A447B68C3F890204EE07B6803F148014FF000024FF00003084600F099F8024689
S32D0000D7507B68D3F890301A447B68C3F890203BE07B6803F148014FF00002234B084600F087F802467B68D3F8F4
S32D0000D77890301A447B68C3F8902029E07B681846FFF70EFD02467B68D3F890301A447B68C3F890201CE07B688B
S32D0000D7A04833184600F004F902467B68D3F890301A447B68C3F890200EE07B681846FFF721FB7B684833184636
S32D0000D7C800F0E0F87B680022C3F89020012300E0002318460837BD4680BD00BF008061400000084000805B40B4
S32D0000D7F00000144000000C4000003E4080B483B000AFC7E900013A68796821F00043104619460C37BD4680BC18
S32D0000D8187047000082B0B0B582B000AF786007F1180181E80C007B68114A0221184600F07FFC7B6803F1080448
S32D0000D84007F118050FCD0FC40FCD0FC495E80F0084E80F0079684FF000024FF00003C1E90E237B6800221A647E
S32D0000D8687B6818460837BD46BDE8B04002B070476666E64000000000B0B584B000AFF860C7E90023FB681B6CC2
S32D0000D890002B05D102F0A0FB03461A46FB681A64FB68D3E90E23D7E9000107F0DDF90346002B03D04FF00002EC
S32D0000D8B8314B02E04FF00002304BF86800F0B4F802F086FB0246FB681B6CD31A184606F0BDFE04460D46FB688B
S32D0000D8E0D3E90E23D7E9000106F076FD02460B4610461946FFF782FF4FF00002224B06F023FF02460B46104689
S32D0000D90819461BA3D3E9002307F044F802460B462046294607F0A4F90346002B11D1FB68D3E90E23D7E9000159
S32D0000D93007F07CF90346002B09D0FB6808331846FFF798FD0346002B01D0012300E00023002B0CD0FB68002291
S32D0000D9581A64F968D7E90023C1E90E23F86800F011F8034600E0002318461037BD46B0BD0000000000C06740E3
S32D0000D98000003EC000003E4000408F4080B582B000AF78607B684FF00001184600F034FC642002F0DDFA0123EE
S32D0000D9A818460837BD4680BD80B582B000AF78607B681B6C002B05D102F00AFB03461A467B681A644FF00002D9
S32D0000D9D0164B786800F02CF87B6808331846FFF749FD0346002B08D102F0F6FA02467B681B6CD31AB3F5FA6F3D
S32D0000D9F801D9012300E00023002B0ED079684FF000024FF00003C1E90E237B6800221A647868FFF7B7FF034660
S32D0000DA2000E0002318460837BD4680BD00003E402DE9904385B000AFF860C7E90023FC6813A3D3E90023D7E9C9
S32D0000DA48000106F07DFE02460B4690469946104805F05EFB0346184606F01AFE02460B464046494606F096FF5C
S32D0000DA7002460B461046194607F048F903461946204600F0C1FB00BF1437BD46BDE890836666666666662740B8
S32D0000DA98D01B002080B500AF0F4BD3F8A03003F48053002B14BF01230023DBB2002B10D0094BD3F8A030084A94
S32D0000DAC023F48053C2F8A030064806F0FBFB064B1B68054A23F40053136000BF80BD00BF00C004400C1C002083
S32D0000DAE8C0F00F4080B400AF124B4FF480725A63114B5B69104A43F4005353610E4B1B680D4A43F400531360F7
S32D0000DB100A4B0C4A1A630C4BD3F888310A4A43F08063C2F88831084B9B68074A43F08063936000BFBD4680BC59
S32D0000DB38704700BF00C00440C0F00F4003010A0000E100E080B400AF334B00225A70324B98221A70304B9B79DA
S32D0000DB60DBB203F01003002B14BF01230023DBB2002B00D0F2E72A4B9B79DBB29B08DBB203F00303022B14BF1F
S32D0000DB8801230023DBB2002B00D0F0E7224B18221A71214B00225A71204B03F580531A461F4B53641C4B5422AA
S32D0000DBB05A711B4B9B79DBB203F02003002B0CBF01230023DBB2002B00D0F2E7144B9B79DBB203F04003002B60
S32D0000DBD80CBF01230023DBB2002B00D0F2E70E4B1B78DBB20C4A03F03F03DBB213700A4B9B79DBB29B08DBB272
S32D0000DC0003F00303032B14BF01230023DBB2002B00D0F0E700231846BD4680BC704700BF0040064000700440E6
S32D0000DC280000130180B500AF314B03F580539B6B2F4A43F4785302F580529363FFF752FFFFF780FF2B4B5822A3
S32D0000DC501A602A4B1B684FF47A7202FB03F3284A1360274B1B681A46234B03F580535B6C1B0E03F00F03013376
S32D0000DC78B2FBF3F31A46214B1A601D4B03F58053DB6B1B4A43F0225302F58052D363184B03F580531B6B164A0C
S32D0000DCA043F0006302F580521363174B4FF480721A61642002F040F8134B5B69124A23F010035361104B0022EC
S32D0000DCC81A600F4B10225A610E4803F0F3FA02F0C7FE02F025FF0C4802F08CF80B4806F041FB4FF4FA6002F08C
S32D0000DCF037F900BF80BD00BF00700440D01A0020CC1A0020D41A002000D00340841B0020C81A00207C1C0020BD
S32D0000DD1880B500AFFEF713FB00BF80BD80B500AFFEF70DFB00BF80BD80B500AFFEF707FB00BF80BD80B500AF62
S32D0000DD40FEF701FB00BF80BD80B500AFFEF7FBFA00BF80BD80B500AFFEF7F5FA00BF80BD80B500AFFEF7EFFA78
S32D0000DD6800BF80BD80B500AFFEF7E9FA00BF80BD80B500AFFEF7E3FA00BF80BD80B500AFFEF7DDFA00BF80BD7B
S32D0000DD9080B500AFFEF7D7FA00BF80BD80B500AFFEF7D1FA00BF80BD80B500AFFEF7CBFA00BF80BD80B500AFA1
S32D0000DDB8FEF7C5FA00BF80BD80B500AFFEF7BFFA00BF80BD80B500AFFEF7B9FA00BF80BD80B500AFFEF7B3FAF1
S32D0000DDE000BF80BD80B500AFFEF7ADFA00BF80BD80B500AFFEF7A7FA00BF80BD80B500AFFEF7A1FA00BF80BDB7
S32D0000DE0880B500AFFEF79BFA00BF80BD80B500AFFEF795FA00BF80BD80B500AFFEF78FFA00BF80BD80B500AFDC
S32D0000DE30FEF789FA00BF80BD80B500AFFEF783FA00BF80BD80B500AFFEF77DFA00BF80BD80B500AFFEF777FA68
S32D0000DE5800BF80BD80B500AFFEF771FA00BF80BD80B500AFFEF76BFA00BF80BD80B500AFFEF765FA00BF80BDF2
S32D0000DE8080B500AFFEF75FFA00BF80BD80B500AFFEF759FA00BF80BD80B500AFFEF753FA00BF80BD80B500AF18
S32D0000DEA8FEF74DFA00BF80BD80B500AFFEF747FA00BF80BD80B500AFFEF741FA00BF80BD80B500AFFEF73BFAE0
S32D0000DED000BF80BD80B500AFFEF735FA00BF80BD80B500AFFEF72FFA00BF80BD80B500AFFEF729FA00BF80BD2E
S32D0000DEF880B500AFFEF723FA00BF80BD80B500AFFEF71DFA00BF80BD80B500AFFEF717FA00BF80BD80B500AF54
S32D0000DF20FEF711FA00BF80BD80B500AFFEF70BFA00BF80BD80B500AFFEF705FA00BF80BD80B500AFFEF7FFF958
S32D0000DF4800BF80BD80B500AFFEF7F9F900BF80BD80B500AFFEF7F3F900BF80BD80B500AFFEF7EDF900BF80BD6C
S32D0000DF7080B500AFFEF7E7F900BF80BD80B500AFFEF7E1F900BF80BD80B500AFFEF7DBF900BF80BD80B500AF92
S32D0000DF98FEF7D5F900BF80BD80B500AFFEF7CFF900BF80BD80B500AFFEF7C9F900BF80BD80B500AFFEF7C3F9D3
S32D0000DFC000BF80BD80B500AFFEF7BDF900BF80BD80B500AFFEF7B7F900BF80BD80B500AFFEF7B1F900BF80BDA8
S32D0000DFE880B500AFFEF7ABF900BF80BD80B500AFFEF7A5F900BF80BD80B500AFFEF79FF900BF80BD80B500AFCE
S32D0000E010FEF799F900BF80BD80B500AFFEF793F900BF80BD80B500AFFEF78DF900BF80BD80B500AFFEF787F94A
S32D0000E03800BF80BD80B500AFFEF781F900BF80BD80B500AFFEF77BF900BF80BD80B500AFFEF775F900BF80BDE3
S32D0000E06080B500AFFEF76FF900BF80BD80B500AFFEF769F900BF80BD80B500AFFEF763F900BF80BD80B500AF09
S32D0000E088FEF75DF900BF80BD80B500AFFEF757F900BF80BD80B500AFFEF751F900BF80BD80B500AFFEF74BF9C2
S32D0000E0B000BF80BD80B500AFFEF745F900BF80BD80B500AFFEF73FF900BF80BD80B500AFFEF739F900BF80BD1F
S32D0000E0D880B500AFFEF733F900BF80BD80B500AFFEF72DF900BF80BD80B500AFFEF727F900BF80BD80B500AF45
S32D0000E100FEF721F900BF80BD80B500AFFEF71BF900BF80BD80B500AFFEF715F900BF80BD80B500AFFEF70FF939
S32D0000E12800BF80BD80B500AFFEF709F900BF80BD80B584B000AFF8600B467A60FB72FB68FA7A1A71FB68002207
S32D0000E1505A711749786807F0F3F80346002B02D0134B7B600AE04FF07E51786807F0D4F80346002B02D04FF015
S32D0000E1787E537B60786806F08BFA09A3D3E9002306F0DEFA02460B461046194606F0BAFD0246FB681A60FB6896
S32D0000E1A018461037BD4680BDABAAAAAAAAAA20400000404180B584B000AF786039603B687F2B02DD7F23FB73C9
S32D0000E1C808E03B6813F1800F02DA8023FB7301E03B68FB737B685B79FA7B9A4209D07B68FA7B5A717B681979B3
S32D0000E1F0FA7B1E23034801F03BFE00BF1037BD4680BD00BFC81A0020B0B584B000AF786039603749386807F0FF
S32D0000E21875F80346002B02D0334B3B6008E03349386807F089F80346002B01D02F4B3B60386806F02DFA04462F
S32D0000E2400D467B681B68184606F026FA4FF00002294B06F0A3FB02460B462046294606F073FA02460B4610467A
S32D0000E268194606F04FFD03463B604FF00001386807F058F80346002B10D0386806F008FA17A3D3E9002306F061
S32D0000E2905BFA02460B461046194606F0EFFC0346FB6018E0386806F0F7F94FF00002134B06F04AFA02460B4648
S32D0000E2B8104619464FF000020D4B06F06BFB02460B461046194606F0D5FC0346FB60F9687868FFF76BFF00BF75
S32D0000E2E01037BD46B0BD00BF52B81E85EB51F43F0000C8C20000C842000059400000604080B483B000AF034652
S32D0000E3080A46FB711346BB71BB79002B03D1134B00221A7002E0114B01221A703823FB710E4B1A78FB79134302
S32D0000E330FB710D4B9B78DBB20B4A43F01003DBB29370094B9B78DBB2074A43F02003DBB29370054AFB791371BE
S32D0000E35800BF0C37BD4680BC704700BFA41800200060064080B483B000AF01237B607B68312B04DC00BF7B6888
S32D0000E38001337B60F7E700BF0C37BD4680BC704780B582B000AF03460A46FB711346BB71134B1B78002118467A
S32D0000E3A8FFF7AAFF00F024F8104AFB79137100F01FF80E4ABB79137100F01AF80B4B9B78DBB20A4A23F02003B1
S32D0000E3D0DBB29370074B9B78DBB2064A23F01003DBB29370FFF7C2FF00BF0837BD4680BDA5180020006006401F
S32D0000E3F880B483B000AF174B1B78002B24D100237B60154BDB78DBB203F00203002B0CBF01230023DBB2002BA1
S32D0000E4200DD07B6842F21072934203DD0B4B01221A7004E07B6801337B6000BFE5E7084BDB78DBB2064A43F089
S32D0000E4480203DBB2D37000E000BF0C37BD4680BC704700BFA61800200060064080B582B000AF0346FB71FB7977
S32D0000E470184600F05FF800BF0837BD4680BD80B582B000AF03460A46FB711346BB7100F035F8FB795B00DBB282
S32D0000E4981846FFF7E3FFBB791846FFF7DFFF00F037F800BF0837BD4680BD80B500AFFF2000F03CF8034618468F
S32D0000E4C080BD80B584B000AF0346FB7100F016F8FB795B005BB243F001035BB2DBB21846FFF7C0FFFFF7E5FF8C
S32D0000E4E80346FB7300F014F8FB7B18461037BD4680BD000080B400AF044B9B68034A43F48013936000BFBD46F7
S32D0000E51080BC704740F00F4080B400AF044B5B68034A43F48013536000BFBD4680BC704740F00F4080B485B00F
S32D0000E53800AF0346FB710023BB73164BDB6A03F00043012B0CBF01230023DBB2002B03D0FB7B0133FB73F0E76C
S32D0000E5600E4BDB6A0D4A43F00043D3620B4AFB7953630A4BDB6A03F40033002B0CBF01230023DBB2002B00D0E5
S32D0000E588F3E7044B9B6BBB73BB7B18461437BD4680BC704700C00A4080B582B000AF204B03F580531B6B1E4AEF
S32D0000E5B043F4805302F5805213631C4B4FF480721A651B4B5B691A4A43F480135361FFF7A3FF164B4FF400721F
S32D0000E5D85A65144B4FF400729A65124B4FF40072DA65124B124A1A60104B124ADA6000237B607B68092B06DCD7
S32D0000E600FF20FFF72FFF7B6801337B60F5E704A1D1E9000101F0BAFC00BF0837BD4680BD9A9999999999B93F07
S32D0000E6280070044000A0044040F00F4000C00A40000C00800500003E90B486B000AFF860B9607A60FB68534A60
S32D0000E65093420AD1524B03F580535B6B504A43F4806302F58052536345E0FB684D4A93420AD14B4B03F580535B
S32D0000E6785B6B494A43F4006302F58052536336E0FB68474A93420AD1434B03F580535B6B414A43F4805302F59D
S32D0000E6A08052536327E0FB68404A93420AD13C4B03F580535B6B3A4A43F4005302F58052536318E0FB683A4A9C
S32D0000E6C893420AD1344B03F580539B6A324A43F4806302F58052936209E02F4B03F580539B6A2D4A43F400638D
S32D0000E6F002F580529362FB68DB78DBB223F00C03DAB2FB68DA70FB6800229A70BB684FF47A7203FB02F27B68EA
S32D0000E7181B0192FBF3F39CB2FB681B78DBB223F01F03FB75230A9BB2DBB203F01F03DAB2FB7D1343DAB2FB6869
S32D0000E7401A70E2B2FB685A70BB684FF4FA4203FB02F27B681B0192FBF3F39AB263019BB2D31A9CB2FB689B7AAA
S32D0000E768DBB223F01F03FB75E3B203F01F03DAB2FB7D1343DAB2FB689A72FB68DB78DBB243F00C03DAB2FB68DE
S32D0000E790DA7000BF1837BD4690BC704700A006400070044000B0064000C0064000D0064000A00E4080B483B0FC
S32D0000E7B800AF78607B681B79DBB203F02003002B0CBF01230023DBB2002B00D0F2E77B68DB79DBB218460C378F
S32D0000E7E0BD4680BC704780B483B000AF78600B46FB707B681B79DBB25BB2DB43DBB2DB09DBB2002B00D0F4E768
S32D0000E8087B68FA78DA7100BF0C37BD4680BC704780B487B000AFF860B9607A60FB687B617B685A1E7A60002B46
S32D0000E83014BF01230023DBB2002B06D07B695A1C7A61BA68D2B21A70EEE700BF1C37BD4680BC704780B584B067
S32D0000E85800AF786039607B681B6BFB60FA683B689A4252D07B681B79002B35D07B6858787B6803F13401012321
S32D0000E880FA6801F0F7F80346002B14BF01230023DBB2002B01D001233CE07B6800221A717B685A6A7B681B6A32
S32D0000E8A81344FA689A4217D27B68DB78FB72FB7A012B11D97B681B6AFA681344FB607B6858787B6803F134015B
S32D0000E8D00123FA6801F0CEF8FB7A013BFB72EAE73B68002B15D07B6858787B6803F1340101233A6800F0DAFFED
S32D0000E8F80346002B14BF01230023DBB2002B01D0012303E07B683A681A63002318461037BD4680BD80B584B061
S32D0000E92000AF786000217868FFF794FF0346FB73FB7B002B40F093807B681B78032B7DD17B685B79002B79D000
S32D0000E9487B6800221A637B6834334FF4007200211846FFF75DFF7B68552283F832227B68AA2283F833227B68C4
S32D0000E970522283F834207B68522283F835207B68612283F836207B68412283F837207B68722283F818227B68B1
S32D0000E998722283F819227B68412283F81A227B68612283F81B227B681B69DAB27B6883F81C227B681B699BB2A9
S32D0000E9C01B0A9BB2DAB27B6883F81D227B681B691B0CDAB27B6883F81E227B681B691B0EDAB27B6883F81F221B
S32D0000E9E87B68DB68DAB27B6883F820227B68DB689BB21B0A9BB2DAB27B6883F821227B68DB681B0CDAB27B68E1
S32D0000EA1083F822227B68DB681B0EDAB27B6883F823227B6858787B6803F134017B685A69012301F01FF87B6827
S32D0000EA3800225A717B685B7800220021184601F0E1F80346002B14BF01230023DBB2002B01D00123FB73FB7B83
S32D0000EA6018461037BD4680BD80B582B000AF78600B467B807B68002B08D07B681B78002B04D07B68DB887A88C6
S32D0000EA889A4201D0092311E07B685B78184601F03BF9034603F00103002B14BF01230023DBB2002B01D0032329
S32D0000EAB000E0002318460837BD4680BD80B586B000AF78607B681A687B689B8819461046FFF7CAFF0346FB75CE
S32D0000EAD8FB7D002B40F0AC807B689B7903F02003002B00F0A5807B689B7903F04003002B1BD07B681B6858784B
S32D0000EB007B6803F128017B689A69012300F0B2FF0346002B14BF01230023DBB2002B01D001238AE07B689B79A0
S32D0000EB2823F04003DAB27B689A717B681A687B68DB6919461046FFF789FE0346FB75FB7D002B75D17B681B6A27
S32D0000EB503B613B690B331A783B690B3342F02002D2B21A707B68DA683B691C33D2B21A707B68DB689BB21B0A85
S32D0000EB789AB23B691D33D2B21A707B68DB681A0C3B691E33D2B21A707B68DB681A0E3B691F33D2B21A707B689D
S32D0000EBA01A693B691A33D2B21A707B681B699BB21B0A9AB23B691B33D2B21A707B681B691A0C3B691433D2B2A4
S32D0000EBC81A707B681B691B0C9BB21B0A9AB23B691533D2B21A700023FB603B691633FA68D2B21A70FB689BB2C4
S32D0000EBF01B0A9AB23B691733D2B21A70FB681A0C3B691833D2B21A70FB681A0E3B691933D2B21A707B689B7984
S32D0000EC1823F02003DAB27B689A717B681B6801221A717B681B681846FFF774FE0346FB75FB7D18461837BD46FD
S32D0000EC4080BD80B584B000AF78607868FFF736FF0346FB73FB7B002B02D17B6800221A60FB7B18461037BD46A6
S32D0000EC6880BD000080B588B000AF7860396080233B610F23FB604FF0FF337B610223FB61FB69B3F5807F23D814
S32D0000EC900123BB61BB69102B1AD8FB69BA6902FB03F33A6803FB02F27B68D31ABB60BB68002B09DBBB687A6994
S32D0000ECB89A4205D9BB687B61FB693B61BB69FB60BB690133BB61E1E7FB695B00FB61D7E71D4BDB6A1C4A23F0BB
S32D0000ECE00803D3621A4BDB6A23F47F2323F47F63BB613B695B081B029AB2FB68013B1B01DBB21A43BB691343BF
S32D0000ED08114A43F46023D3620F4B5B6A03F00803002B0CBF01230023DBB2002B03D00A2001F01AF9F0E7084B56
S32D0000ED30DB6A074A43F00803D362054B1B6B044A43F48013136300BF2037BD4680BD00BF00100B4080B582B071
S32D0000ED5800AF786039607B6800221A60414B424ADA62404BDB6A03F08073002B14BF01230023DBB2002B00D017
S32D0000ED80F3E73A4B0022C3F8C020384B4FF481325A60364B28229A62344B4FF001125A643B689B683349184640
S32D0000EDA8FFF760FF2F4B5B6A03F00303002B14BF01230023DBB2002B00D0F3E72C4B40F243421A602A4B40F2BA
S32D0000EDD043425A60284B4FF488629A60264B40F24342DA60244B40F243421A61224B40F243425A61214B03F5F6
S32D0000EDF880531B6B1F4A43F4003302F580521363184B4FF6FF721A63164B1B4A5A63154BDB6A144A43F00063D0
S32D0000EE20D362124BDB6A03F00063002B14BF01230023DBB2002B00D0F3E70C4B5B6A03F48033002B14BF012308
S32D0000EE480023DBB2002B02D07B6801221A60054B1B6B044A43F080031363002318460837BD4680BD00100B40C4
S32D0000EE700080000160CC050000D0044000700440B3007F0080B400AF064B5A6A40F207331340002B14BF0123EF
S32D0000EE980023DBB21846BD4680BC704700100B4080B485B000AF7860074B1B6B7A681340FB60FB68002B00D136
S32D0000EEC0F6E7FB6818461437BD4680BC704700BF00100B4080B584B000AF78607B681B7803F03F03764A52F886
S32D0000EEE82330FB60FB68002B05D17B681B78002B01D00123DCE0714B1B6B704A43F0800313636E4B5B6A03F0FF
S32D0000EF100103002B14BF01230023DBB2002B00D0F3E7684A7B685B689360FB6823F44003FB607B685B789B056F
S32D0000EF3803F44003FA681343FB607B685B78022B03D1FB6843F40013FB607B685B78042B16D1FB6803F4403306
S32D0000EF60B3F5003F08D1FB6823F44033FB60FB6843F44033FB6007E0FB6823F44033FB60FB6843F40033FB60BC
S32D0000EF884E4B5B684D4A9BB253607B68DB68002B2AD0FB6803F44033B3F5403F03D0FB6843F40013FB607B686B
S32D0000EFB01B7A002B03D0FB6843F01003FB607B68DB68012B03D9FB6843F02003FB607B68DB68B3F1FF3F0BD077
S32D0000EFD83A4B5A687B68DB681B04384913434B60FB6843F00203FB60344B00221A60334AFB68D3603248FFF769
S32D0000F00053FF0346012B14BF01230023DBB2002B09D02C4B1B6B2B4A43F4702343F001031363012348E0274BC9
S32D0000F0281B6B03F08003002B14BF01230023DBB2002B07D0214B1B6B204A43F001131363012335E01D4B1B6BAA
S32D0000F05003F48033002B14BF01230023DBB2002B08D0184B1B6B174A43F0011313634FF0FF3321E0FB6803F440
S32D0000F0784033002B15D0114B1A697B681A61FB6803F44033B3F5803F0BD10C4B5A697B685A610A4B9A697B68A7
S32D0000F0A09A61084BDA697B68DA61064B1B6B054A43F001031363002318461037BD4680BDE4B9010000100B40BF
S32D0000F0C801000E0080B592B000AF7860396000237B643B68BB63994B7B637B6B002B02D140F601235FE3964B8E
S32D0000F0F03B633B6B002B02D140F60B2357E33B6B1B68FB62FB6A002B02D140F60B234EE37B6841F2093293426E
S32D0000F11800F23F837B68B3F5985F08D87B68032B00F01A837B68092B00F0098331E37B68A3F59853013B082B99
S32D0000F14000F22B8301A252F823F000BF71F100005DF40000B9F6000073F40000B1F40000D7F500001FF60000F3
S32D0000F16861F500007BF500007649786BFFF7EEFD78647B6C002B40F01083002387F84330002387F82B3000234A
S32D0000F19087F82A30002387F82930002387F84230002387F8283000233B7200237B720023FB6000233B7400231C
S32D0000F1B87B6107F108031846FFF788FE0346002B14BF01230023DBB2002B02D001237B64E8E240F24C4000F0DD
S32D0000F1E0BFFE08233B7200237B724FF4D573FB6000233B7400237B6107F108031846FFF769FEF863FB6B002BFB
S32D0000F20809D1BA69FB689A4202D001237B64C9E2012387F84230012387F8283097F82830002B00F0A58037238B
S32D0000F2303B7200237B720023FB6000233B7400237B6107F108031846FFF744FEF863FB6B002B02D001237B644A
S32D0000F258A8E269233B7200237B720023FB6000233B7400237B6107F108031846FFF72EFE0346002B14BF012378
S32D0000F2800023DBB2002B02D001237B648EE2BB6903F44013002B6FD00023FB630A2000F05FFEFB6B0133FB6378
S32D0000F2A837233B7200237B720023FB6000233B7400237B6107F108031846FFF707FE0346002B14BF01230023E8
S32D0000F2D0DBB2002B02D001237B6428E069233B7200237B7297F84230002B02D0184BFB6002E04FF44013FB60A3
S32D0000F2F800233B7400237B6107F108031846FFF7E5FD0346002B14BF01230023DBB2002B02D001237B6406E0DD
S32D0000F320BB69002B03DBFB6B632B00D8B6E77B6C002B40F03882FB6B632B0BD9002387F8423019E0BC18002054
S32D0000F348C01A0020D8B9010000003040012387F8433097F84230002B0AD0002387F84230BB6903F08043002B66
S32D0000F37002D0012387F8423097F82A30002B02D07B6B07221A6097F82930002B02D07B6B08221A6097F82B30C0
S32D0000F398002B02D07B6B04221A6097F84330002B09D07B6B02221A6097F84230002B02D07B6B03221A6097F828
S32D0000F3C02B30002B0DD097F84330002B09D07B6B05221A6097F84230002B02D07B6B06221A60924B00221A6030
S32D0000F3E8904B00225A608F4B00229A608D4B0022DA608C4B00221A618A4B00225A61FB6A9A68FB6A5B68194602
S32D0000F4101046FFF72BFC854B40F243421A60834B40F243425A60814B4FF488629A607F4B40F24342DA607D4BA5
S32D0000F43840F243421A617B4B40F243425A617A4B03F580531B6B784A43F4003302F580521363A7E1B86BFFF71A
S32D0000F46039FDF863FB6B002B00F09F8102237B649BE1BB6B002B02D10C237B6496E16D4BDB6A1B0A5B0003F4AF
S32D0000F488FF73FB63694BDB6A1B0903F00F035A1CFB6B02FB03F3FB63FB6A9A68FB6BB2FBF3F2BB6B1A607DE1DA
S32D0000F4B0BB6B002B02D10C237B6477E1BB6B1B68002B02D10C237B6470E1FFF7DBFC0346002B0CBF012300234B
S32D0000F4D8DBB2002B3CD0534B00221A60514B00225A60504B00229A604E4B0022DA604D4B00221A614B4B0022F7
S32D0000F5005A61FB6A9A68BB6B1B6819461046FFF7ADFB464B40F243421A60444B40F243425A60424B4FF4886243
S32D0000F5289A60404B40F24342DA603E4B40F243421A613C4B40F243425A613B4B03F580531B6B394A43F40033C7
S32D0000F55002F58052136329E140F60A237B6425E1BB6B002B02D10C237B641FE1314B5B68C3F30C02BB6B1A6027
S32D0000F57818E1BB6B002B02D10C237B6412E1FFF77DFC0346002B0CBF01230023DBB2002B19D0BB6B1B68B3F560
S32D0000F5A0805F02D30C237B6400E1224B5B68214A23F4FF5323F01F0353601E4B5A68BB6B1B68C3F30C031B49B1
S32D0000F5C813434B60EEE040F60A237B64EAE0BB6B002B02D10C237B64E4E0144B9B6A5B0803F00303FB63FB6BC0
S32D0000F5F0002B03D1BB6B00221A60D7E0FB6B012B03D1BB6B01221A60D0E0FB6B102B03D1BB6B02221A60C9E0BA
S32D0000F61805237B64C6E0BB6B002B09D10C237B64C0E000BF00D004400070044000100B40FFF724FC0346002BD2
S32D0000F6400CBF01230023DBB2002B31D0BB6B1B68002B0AD1584B9B6A574A23F006039362554B554A9B6A93628F
S32D0000F668A0E0BB6B1B68012B0CD1514B9B6A504A23F0060393624E4B9B6A4D4A43F0020393628FE0BB6B1B687C
S32D0000F690022B0AD1484B9B6A474A23F006039362454B454A9B6A936280E005237B647DE040F60A237B6479E092
S32D0000F6B8BB6B002B02D10C237B6473E03C4BDB6A3B4A43F00063D362394BDB6A03F00063002B14BF012300231F
S32D0000F6E0DBB2002B00D0F3E7334B1B6B03F08003002B14BF01230023DBB2002B08D02E4B1B6B2D4A43F080031F
S32D0000F70813637B6B00221A60294B5B6A03F48033002B14BF01230023DBB2002B07D07B6B1B68002B06D17B6BD3
S32D0000F73001221A6002E07B6B00221A607B6B1A68BB6B1A6032E0BB6B1C221A60BB6B043304221A60BB6B083354
S32D0000F7584FF41E721A6025E00220FFF7A1FB144B1B6B03F4E003002B14BF01230023DBB2002B07D00E4B1B6B0B
S32D0000F7800D4A43F4E003136304237B640A4B1B6B094A43F03203136308E040F609237B6404E000BF02E000BFF5
S32D0000F7A800E000BF7B6C18464837BD4680BD00BF00100B4080B489B000AF786039607B687B61364B3B613B6969
S32D0000F7D0002B01D100235FE03B691B68022B0BD03B691B68032B07D03B691B68072B03D03B691B68082B0BD1EF
S32D0000F7F82B4B5B6A03F00403002B14BF01230023DBB2002B00D0F3E73B68FB61FB69002B3DD0FB69B3F5007FE1
S32D0000F82028BF4FF40073FB60FB6803339B08BB61BB69002B2AD01C4B1B6B03F4E003002B14BF01230023DBB288
S32D0000F848002B09D0164B1B6B154A43F4E00343F02003136300231BE0114B5B6A03F40063002B0CBF012300238C
S32D0000F870DBB2002B00D0F3E70B497B691A1D7A610A6A1A60BB69013BBB61D1E7FA69FB68D31AFB61BEE70123C4
S32D0000F89818462437BD4680BC704700BFBC18002000100B4080B58EB000AFB9607A601A460346FB731346BB73D2
S32D0000F8C0414B7B63FB7B002B02D1BB7B002B01D1042375E03D4B1B78DBB203F00103002B14BF01230023DBB21C
S32D0000F8E8002B01D0032367E0BB68002B01D1002362E07B6B1B7B002B02D17B685B027B60BB7B012B28D11123E0
S32D0000F9103B7500237B757B68BB6101233B77BB7B3B6207F11403194641F20230FFF7CEFB0346002B0CBF012369
S32D0000F9380023DBB2002B38D04FF40071B868FFF739FF0346002B14BF01230023DBB2002B2BD00023BB7328E022
S32D0000F96012233B7500237B757B68BB6101233B77BB7B3B6207F11403194641F20230FFF7A5FB0346002B0CBF31
S32D0000F98801230023DBB2002B0FD0BB7B5B021946B868FFF70FFF0346002B14BF01230023DBB2002B01D0002323
S32D0000F9B0BB73BB7B002B01D0012300E0002300BF18463837BD4680BDA81800200400002080B487B000AF7860E0
S32D0000F9D839607B68FB603B687B617B69002B3DD07B69B3F5007F28BF4FF400733B617A693B69D31A7B613B6957
S32D0000FA0003339B083B613B69002BEAD0184B1B6B03F4E003002B14BF01230023DBB2002B0AD0134B1B6B124A00
S32D0000FA2843F4E00343F0100313634FF0FF3316E00D4B5B6A03F48063002B0CBF01230023DBB2002B00D0F3E7DD
S32D0000FA50FB681A1DFA60064A1B6813623B69013B3B61D0E7012318461C37BD4680BC704700100B4080B58EB080
S32D0000FA7800AFB9607A601A460346FB731346BB735D4B7B63FB7B002B02D1BB7B002B01D10423ADE0594B1B7808
S32D0000FAA0DBB203F00103002B14BF01230023DBB2002B01D003239FE0524B1B78DBB203F00403002B14BF012368
S32D0000FAC80023DBB2002B01D0022391E0BB68002B01D100238CE07B6B1B7B002B02D17B685B027B60BB7B012B28
S32D0000FAF028D118233B7500237B757B68BB6100233B77BB7B3B6207F11403194641F20230FFF7DCFA0346002B37
S32D0000FB180CBF01230023DBB2002B38D04FF40071B868FFF751FF0346002B14BF01230023DBB2002B2BD000236F
S32D0000FB40BB7328E019233B7500237B757B68BB6100233B77BB7B3B6207F11403194641F20230FFF7B3FA0346FC
S32D0000FB68002B0CBF01230023DBB2002B0FD0BB7B5B021946B868FFF727FF0346002B14BF01230023DBB2002B27
S32D0000FB9001D00023BB730D233B7500237B757B6B1B69BB6100233B7700233B6207F11403194641F20230FFF74E
S32D0000FBB889FA0346002B14BF01230023DBB2002B01D0012314E07A6A0D4B1340002B01D001230DE07B6A03F4F5
S32D0000FBE0F853B3F5106F00D0D5E7BB7B002B01D0012300E0002300BF18463837BD4680BDA818002004000020D0
S32D0000FC080880D9FF80B58CB000AF03463A60FB710B46BB713A4BBB62FB79002B01D0042369E0012387F82F30FE
S32D0000FC30364B1B78DBB203F00103002B14BF01230023DBB2002B01D0032358E0BB79032B50D801A252F823F058
S32D0000FC5869FC000071FC000081FC000091FC0000002387F82F3044E0BB6A9A683B681A60002387F82F303CE01C
S32D0000FC803B684FF400721A80002387F82F3034E009233B7200237B72BB6A1B69FB6000233B7400237B6107F199
S32D0000FCA80803194641F20230FFF70CFA0346002B14BF01230023DBB2002B01D001231AE07B6A03F44003002BE4
S32D0000FCD00CD13B6A9B0C03F07F035A1C7B6A1B0A03F00303013B9A403B681A60002387F82F3002E0042387F833
S32D0000FCF82F3097F82F3018463037BD4680BD00BFA81800200400002080B483B000AF0346FB71FB79002B01D08E
S32D0000FD20012302E0034B1B78DBB218460C37BD4680BC70470400002080B483B000AF7860164B03F580539B6B66
S32D0000FD48144A43F0010302F580529363124A7B689360114B05225A600F4B1B680E4A43F0010313600C4B1B6811
S32D0000FD7003F08003002B0CBF01230023DBB2002B00D0F3E7064B1B68054A23F00103136000BF0C37BD4680BC62
S32D0000FD98704700BF007004400000044080B582B000AF786039607B68012B07D13B684FF6FF72934202D1034815
S32D0000FDC000F00EF800BF0837BD4680BDC81A002080B500AF4FF6FF710120FFF7E3FF80BD80B483B000AF786022
S32D0000FDE87B6800221A707B6818460C37BD4680BC7047000080B582B000AF78607B681B7883F00103DBB2002B51
S32D0000FE1021D0134B03F580531A464FF400639362104B4FF440721A620E4B4FF440725A620D4B1B68DA0F1344BE
S32D0000FE385B104FF4614219460A48FEF7FDFB642000F08AF87B6801221A70012300E0002318460837BD4680BD23
S32D0000FE600070044000D00440CC1A002000B00E4080B582B000AF7860084611461A460346FB700B46BB7013462C
S32D0000FE887B707F210E48FEF7AAFC08210C48FEF7A6FCFB7819460A48FEF7A1FCBB7819460748FEF79CFC7B78A5
S32D0000FEB019460548FEF797FCFF210348FEF793FC00BF0837BD4680BD00B00E4080B487B000AFF860B9607A6060
S32D0000FED8FB681F4AA2FB03239B09BA6813447B61FB681B4AA2FB031292094FF47A7101FB02F29B1AFB60FB68CE
S32D0000FF00DB03154AA2FB03239B097A6813443B613B69DB0B7A6913447B613B69C3F30E033B610E4B1B687A69F4
S32D0000FF289A4209D80B4B1B687A699A4206D1094B5B683A699A4201D9012300E00023002B00D0EAE700BF1C370A
S32D0000FF50BD4680BC704700BFD34D621000D0034080B584B000AF7860074B1B68FB60064B5B68BB607B68BA68D5
S32D0000FF78F9681846FFF7A6FF00BF1037BD4680BD00D0034080B584B000AFC7E900010E4B1B68FB600C4B5B688E
S32D0000FFA0BB604FF000020B4BD7E9000104F0CCFB02460B461046194604F088FE0346BA68F9681846FFF782FF9C
S32D0000FFC800BF1037BD4680BD00D0034000408F4080B483B000AF0B4B1B684FF47A7202FB03F37B60074B5B68A2
S32D0000FFF04FF47A7202FB03F3DB0B7A6813447B607B6818460C37BD4680BC704700D0034080B582B000AF78604C
S32D000100180B46FB70FB781946786800F005F87B6818460837BD4680BD80B483B000AF78600B46FB707B68FA789F
S32D000100401A707B681B781A46534B9B5C042B00F29E8001A252F823F06D000100A7000100E10001001B01010048
S32D00010068550101004B4A7B681B7819464A4B53F8213040F2031142F82310484B5A697B681B781946444B53F8BF
S32D00010090213003F01F03012101FA03F3DB43414913404B6173E0404A7B681B7819463C4B53F8213040F2031106
S32D000100B842F823103B4B5A697B681B781946364B53F8213003F01F03012101FA03F3DB43344913404B6156E079
S32D000100E0334A7B681B7819462D4B53F8213040F2031142F823102F4B5A697B681B781946274B53F8213003F0C5
S32D000101081F03012101FA03F3DB43284913404B6139E0274A7B681B7819461F4B53F8213040F2031142F82310ED
S32D00010130224B5A697B681B781946194B53F8213003F01F03012101FA03F3DB431B4913404B611CE01A4A7B68AF
S32D000101581B781946104B53F8213040F2031142F82310164B5A697B681B7819460A4B53F8213003F01F030121BB
S32D0001018001FA03F3DB430F4913404B6100BF00BF0C37BD4680BC7047E4BA01000090044028BB010000F00F409D
S32D000101A800A0044040F00F4000B0044080F00F4000C00440C0F00F4000D0044000F10F4080B485B000AF7860CB
S32D000101D00023FB607B681B781A46364B9B5C042B5CD801A252F823F0FD0101001D0201003D0201005D02010012
S32D000101F87D0201002E4B1B697A68127811462D4A52F8212002F01F02012101FA02F21340FB603FE0284B1B69AE
S32D000102207A6812781146254A52F8212002F01F02012101FA02F21340FB602FE0214B1B697A68127811461D4AF7
S32D0001024852F8212002F01F02012101FA02F21340FB601FE01A4B1B697A6812781146154A52F8212002F01F0282
S32D00010270012101FA02F21340FB600FE0134B1B697A68127811460D4A52F8212002F01F02012101FA02F21340B3
S32D00010298FB6000BFFB68002B14BF01230023DBB218461437BD4680BC704700BFE4BA010000F00F4028BB0100C8
S32D000102C040F00F4080F00F40C0F00F4000F10F4080B584B000AF78600B46FB700B23FB73FA7BFB781946786823
S32D000102E800F094F87B6818461037BD4680BD000080B485B000AF78607B68103B002B00DA1F335B11FB60FB6804
S32D00010310022B53D0FB68022B75DCFB68002B03D0FB68012B25D06EE0394BD3F880217B68103B594203F01F038C
S32D0001033801F01F0158BF4B42012101FA03F332491343C1F88031304B1A687B68103B594203F01F0301F01F01A7
S32D0001036058BF4B42012101FA03F3294913430B6049E0274BD3F884217B68103B594203F01F0301F01F0158BF73
S32D000103884B42012101FA03F31F491343C1F884311D4B5A687B68103B594203F01F0301F01F0158BF4B4201219B
S32D000103B001FA03F3164913434B6024E0144BD3F888217B68103B594203F01F0301F01F0158BF4B42012101FA46
S32D000103D803F30D491343C1F888310B4B9A687B68103B594203F01F0301F01F0158BF4B42012101FA03F3044997
S32D0001040013438B6000BF00BF1437BD4680BC704700E100E080B584B000AF78600B46FB701346BB707B68FA7887
S32D000104281A70BB78FB737B681B781A46574B9B5C042B00F2A68001A252F823F059040100A5040100F1040100C6
S32D00010450890501003D050100FB7B1B0403F470234D497A68127810464C4A52F8202043F4897343F0010341F871
S32D000104782230494B5A697B681B781946454B53F8213003F01F03012101FA03F3DB43424913404B616720FFF75E
S32D000104A02BFF72E0FB7B1B0403F470233D497A6812781046394A52F8202043F4897343F0010341F82230384BC5
S32D000104C85A697B681B781946324B53F8213003F01F03012101FA03F3DB43314913404B616820FFF705FF4CE0E7
S32D000104F0FB7B1B0403F470232C497A6812781046264A52F8202043F4897343F0010341F82230274B5A697B6880
S32D000105181B7819461F4B53F8213003F01F03012101FA03F3DB43204913404B616920FFF7DFFE26E0FB7B1B0417
S32D0001054003F470231B497A6812781046134A52F8202043F4897343F0010341F82230164B5A697B681B78194607
S32D000105680C4B53F8213003F01F03012101FA03F3DB430F4913404B616B20FFF7B9FE00E000BF00BF1037BD46F4
S32D0001059080BD00BFE4BA01000090044028BB010000F00F4000A0044040F00F4000B0044080F00F4000D0044080
S32D000105B800F10F40B0B48BB000AF224B3C1D1D460FCD0FC495E80F0084E80F0000237B627B6A072B30DC1C4B1D
S32D000105E0D3F8A0207B6A9B0028333B4453F8243C012101FA03F31340002B14BF01230023DBB2002B18D0134AB4
S32D000106087B6A52F823305A1C10497B6A41F823200D4BD3F8A0207B6A9B0028333B4453F8243C012101FA03F316
S32D0001063007491340C1F8A0307B6A01337B62CBE700BF2C37BD46B0BC704700BF2CBC010000A00440F81A0020C1
S32D00010658B0B489B000AF224B3C1D1D460FCD0FC495E8030084E803000023FB61FB69052B30DC1C4BD3F8A0204F
S32D00010680FB699B0020333B4453F81C3C012101FA03F31340002B14BF01230023DBB2002B18D0FB690833124A91
S32D000106A852F823200132104941F823200D4BD3F8A020FB699B0020333B4453F81C3C012101FA03F30749134081
S32D000106D0C1F8A030FB690133FB61CBE700BF2437BD46B0BC704700BF4CBC010000B00440F81A0020B0B48DB0FD
S32D000106F800AF234B3C461D460FCD0FC40FCD0FC495E8070084E807000023FB62FB6A0A2B30DC1C4BD3F8A02064
S32D00010720FB6A9B0030333B4453F8303C012101FA03F31340002B14BF01230023DBB2002B18D0FB6A0E33124AC4
S32D0001074852F823200132104941F823200D4BD3F8A020FB6A9B0030333B4453F8303C012101FA03F307491340BB
S32D00010770C1F8A030FB6A0133FB62CBE700BF3437BD46B0BC704700BF64BC010000900440F81A0020B0B487B058
S32D0001079800AF214B3C461D460FCD0FC42B68236000237B617B69042B30DC1C4BD3F8A0207B699B0018333B4414
S32D000107C053F8183C012101FA03F31340002B14BF01230023DBB2002B18D07B691933124A52F82320013210497B
S32D000107E841F823200D4BD3F8A0207B699B0018333B4453F8183C012101FA03F307491340C1F8A0307B69013344
S32D000108107B61CBE700BF1C37BD46B0BC704700BF90BC010000D00440F81A002080B483B000AF78607B681B783D
S32D000108381A46044B53F8223018460C37BD4680BC704700BFF81A002080B483B000AF78607B681B781946044BAB
S32D00010860002243F8212000BF0C37BD4680BC7047F81A002080B483B000AF78600B46FB707B68FA781A707B6835
S32D0001088818460C37BD4680BC704700000000000080B586B000AF78607B681B781A463E4B53F822303B617B683D
S32D000108B01B781A463B4B9B5CFB733B69DBB203F01F03DAB2384B1A723B69DBB203F01F03DAB2354B5A72354BBC
S32D000108D81022C3F88820FB7B002B13D13049324800F05AFA304B1B6803F08003802B14BF01230023DBB2002BAF
S32D0001090000D0F3E72A4B1B697B6112E02649294800F046FA274B1B6803F08003802B14BF01230023DBB2002B5F
S32D0001092800D0F3E7214B1B697B611E4BD3F888311C4A43F01003C2F888311A4B9B68194A43F0100393607B6936
S32D000109509BB2184603F07EFE0DA3D3E9002303F0F3FE02460B46104619460BA3D3E9002304F014F802460B4677
S32D000109781046194604F0C6F90346BB60BB6818461837BD4680BD00BFA4703D0AD7A30A4000000000E0FFEF4088
S32D000109A0A8BB010004BB0100D81A002000E100E000B0034000B00B4080B586B000AF78607B681B781A46234B0D
S32D000109C853F822303B617B681B781A46204B9B5CFB733B69DBB203F01F03DAB21D4B1A723B69DBB203F01F0315
S32D000109F0DAB21A4B5A72FB7B002B13D11749184800F0CEF9164B1B6803F08003802B14BF01230023DBB2002B48
S32D00010A1800D0F3E7104B1B697B6112E00D490F4800F0BAF90D4B1B6803F08003802B14BF01230023DBB2002B3A
S32D00010A4000D0F3E7074B1B697B617B6918461837BD4680BDA8BB010004BB0100E81A002000B0034000B00B4026
S32D00010A6898B500AF204B5C221A701F4B10225A701D4B41F234225A801B4B45F278629A80194B10229A71184B2A
S32D00010A900722DA71164B4FF4C022DA60144B1F221A72134B1F225A721149124800F078F90F49114800F074F949
S32D00010AB80F4800F0D2F80D4800F0CFF80A490C4800F06AF90849094800F066F9094A064B14460FCB84E80F00B4
S32D00010AE0064B5C221A70054B0422DA7100BF98BDD81A002000B0034000B00B40E81A002080B500AF064B1B68DF
S32D00010B080133054A136000F03DF8044B0122C3F80C2100BF80BD00BF7C1B00200070034080B500AF0C4B0122C6
S32D00010B301A600C4800F01AF8094B0322C3F80821094BD3F88831084A43F01003C2F88831054B9B68044A43F0B2
S32D00010B581003936000BF80BD00700340A086010000E100E080B483B000AF7860044A7B68C2F8003100BF0C37C5
S32D00010B80BD4680BC704700BF0070034080B584B000AF174B1B68FB60FB68002B24D0FB685B78FB71FB689B68FC
S32D00010BA8184600F023F80346BB71BB79002B13D0FB685B68012B0FDDFB689B681B69BB60BB68002B08D0BB6872
S32D00010BD05B685A1CBB685A60BB681B69BB60F3E7FB68DB68FB60D7E700BF1037BD4680BD781B002080B584B023
S32D00010BF800AF78607868FFF7DBFEF8607B689B695B78FB72FB7A002B0FD17B68DB68FA689A420ADD7B689B6967
S32D00010C2001225A707B685B685A1C7B685A60012313E0FB7A012B0FD17B689B68FA689A420ADA7B689B69002256
S32D00010C485A707B685B685A1C7B685A60012300E0002318461037BD4680BD80B485B000AF78607B681B6A23F083
S32D00010C7040027B681A627B685B6A23F00B027B685A627B685B6A43F007027B685A627B685B6A43F080027B688A
S32D00010C985A627B681B6803F08003002B0CBF01230023DBB2002B00D0F3E77B685B6A03F04003402B0CBF0123BE
S32D00010CC00023DBB2002B01D0012364E00023FB817B68DB6CFB817B689B6C9AB2FB891344FB817B685B6C9AB229
S32D00010CE8FB891344FB817B681B6C9AB2FB891344FB817B68DB6B9AB2FB891344FB817B689B6B9AB2FB8913449D
S32D00010D10FB81FB895B08FB81FB896FEA43436FEA5343FB81FA897B68DA620023FB817B68DB6EFB817B689B6E32
S32D00010D389AB2FB891344FB817B685B6E9AB2FB891344FB817B681B6E9AB2FB891344FB817B68DB6D9AB2FB8990
S32D00010D601344FB817B689B6D9AB2FB891344FB81FB895B08FB81FB896FEA43436FEA5343FB81FA897B681A63EF
S32D00010D887B685B6A23F080027B685A62002318461437BD4680BC704780B483B000AF786039603B681B781A4681
S32D00010DB07B689A603B685B781A467B68DA603B685B881A467B689A613B689B881A467B68DA613B689B791A4625
S32D00010DD87B681A623B68DB791A467B685A623B68DA687B681A653B681B7A1A467B681A603B685B7A1A467B68A0
S32D00010E005A6000BF0C37BD4680BC704780B483B000AF78607B6818460C37BD4680BC704780B582B000AF7860BB
S32D00010E2839607B68012B07D13B684FF6FF72934202D10348FFF7E6FF00BF0837BD4680BD801B002080B500AF17
S32D00010E504FF6FF710120FFF7E3FF80BD80B582B000AF7860B84B4FF48072DA60B74B4FF480729A64B54B4FF4B0
S32D00010E7880721A64B34B4FF480725A64B14B4FF48072DA60B04B5B69AF4A43F008035361AE4B5B69AD4A43F4EA
S32D00010EA080235361AB4B5B69AA4A43F480335361A84B5B69A74A43F400335361A54B1B68A44A43F008031360A8
S32D00010EC8A24B5B69A14A43F0080353619E4B1B689D4A43F0080313609A4B4FF480725A62984B4FF480721A62FF
S32D00010EF0954B4FF480721A61934B4FF480725A61914B4FF480729A618F4B4FF48072DA618D4B4FF480721A6395
S32D00010F188B4B4FF480725A63894B4FF480729A63874B4FF48072DA63854B4FF480721A64834B4FF480725A6454
S32D00010F40814B4FF480729A647F4B4FF48072DA64814B4FF480721A607F4B4FF480729A607D4B4FF48072DA609B
S32D00010F687B4B4FF480721A61784B5B69774A43F440735361744B5B69734A43F47F2343F0F0035361734B5B6989
S32D00010F90724A43F01D035361E221786800F042FE1D21786800F0E4FE0221786800F0E0FE0421786800F0DCFECC
S32D00010FB8E021786800F032FE0121786800F0D4FE6420FEF7C9FFE021786800F027FE0321786800F0C9FE012131
S32D00010FE0786800F01FFE0120FEF7BAFFE621786800F018FE0121786800F0BAFEA021786800F0B6FEFF2178684A
S32D0001100800F0B2FEB021786800F008FE1C21786800F0AAFE0F21786800F0A6FE0121786800F0A2FE3F21786847
S32D0001103000F09EFE0021786800F09AFEEF21786800F096FE0021786800F092FEB421786800F0E8FD01217868FB
S32D0001105800F08AFE9921786800F086FE0021786800F082FE4521786800F07EFE0221786800F07AFE0021786854
S32D0001108000F076FE0021786800F072FE0021786800F06EFEB621786800F0C4FD0121786800F066FE0921786857
S32D000110A800F062FE0021786800F05EFE0E21786800F05AFE0221786800F056FE0021786800F052FE002178689C
S32D000110D000F04EFEBA21786800F0A4FD0F21786800F046FE6420FEF73BFF3A21786800F099FD6021786800F060
S32D000110F83BFE2A21786800F091FD0021786800F033FE0021786800F02FFE0121786800F02BFE3F21786800F05C
S32D0001112027FE2B21786800F07DFD0021786800F01FFE0021786800F01BFE0021786800F017FEEF2178680BE0EC
S32D0001114800B0044000A0044080F00F4040F00F4000C00440C0F00F4000F006FE3621786800F05CFD00217868EA
S32D0001117000F0FEFDF021786800F054FD0421786800F0F6FDB821786800F04CFD0F21786800F0EEFD012178686C
S32D0001119800F0EAFD314B1B68304A43F0080313606420FEF7D9FE3621786800F037FD0021786800F0D9FDF021A4
S32D000111C0786800F02FFD0421786800F0D1FD0121786800F0BCF91E226F21786800F082F8AF225621786800F068
S32D000111E8DBF80021786800F00AFA012301221C49786800F02BFA2921786800F00FFD6420FEF7AAFEBE21786869
S32D0001121000F008FD0E21786800F0AAFDF021786800F0A6FD0121786800F0A2FD0021786800F09EFD0021786872
S32D0001123800F09AFD0F21786800F096FD786800F028FA0121786800F0DAF90021786800F0AFF900BF0837BD461C
S32D0001126080BD00BF40F00F40A4BC010080B582B000AF78607B680022DA617B6801221A627B680E225A607B6823
S32D000112881A229A607B6800225A617B6800229A617B684FF4A072DA607B68F0221A617B6800221A70786801F0FF
S32D000112B093FA7B6818460837BD4680BD80B582B000AF7860064B1B78002B05D1044B01221A707868FFF7C2FD5E
S32D000112D800BF0837BD4680BDC81B002080B58AB002AFF860B9607A607E23009362237A68B968F86800F027FF09
S32D0001130040F24E733B610023FB61FA693B699A4240DA0023BB61214AFB6913441B781A46BB69934232DAFB69F2
S32D0001132801331C4AD35C002B06D1FF23FB75FF23BB75FF237B7512E0FB690133154AD35C012B06D1D423FB7553
S32D000113500023BB7526237B7505E0B523FB75BA23BB75B0237B757B7DBA7DF97DF86800F0C9F80246FB68DA6149
S32D00011378F86801F02DFAF86801F066F9BB690133BB61C4E7FB690233FB61BAE700BF2037BD4680BD08000020EB
S32D000113A080B58AB002AFF860B9607A602723009395237A68B968F86800F0C9FE40F2E6333B610023FB61FA693B
S32D000113C83B699A4240DA0023BB61214AFB6913441B781A46BB69934232DAFB6901331C4AD35C002B06D1FF23AE
S32D000113F0FB75FF23BB75FF237B7512E0FB690133154AD35C012B06D10023FB750023BB7500237B7505E0D4230A
S32D00011418FB750023BB7526237B757B7DBA7DF97DF86800F06BF80246FB68DA61F86801F0CFF9F86801F008F900
S32D00011440BB690133BB61C4E7FB690233FB61BAE700BF2037BD4680BD5807002080B485B000AF78600B46FB7047
S32D00011468FB78062B29D801A252F823F099140100911401009F140100A7140100AF140100B5140100BD1401008C
S32D000114906FF07F43FB6014E00023FB6011E04FF47F03FB600DE04FF47F43FB6009E0FF23FB6006E04FF4190336
S32D000114B8FB6002E0044BFB6000BFFB6818461437BD4680BC704700BF9999990080B584B000AF786039603B68A7
S32D000114E01B0CFB733B681B0ABB733B687B737B7BBA7BF97B786800F005F8034618461037BD4680BD80B487B0BC
S32D0001150800AF7860084611461A460346FB700B46BB7013467B70FB789B08DBB27B61BB789B08DBB23B617B7843
S32D000115309B08DBB2FB607B691A033B699B011A43FB68134318461C37BD4680BC704780B582B000AF78600B46C4
S32D00011558FB70FB7819467868FFF77CFF03461946786800F004F800BF0837BD4680BD80B582B000AF786039609D
S32D0001158039687868FFF7A6FF02467B681A62786801F022F9786800F083FC00BF0837BD4680BD80B582B000AFEA
S32D000115A87860786800F078FC00BF0837BD4680BD80B582B000AF78600B46FB70FB7819467868FFF747FF0346D9
S32D000115D01946786800F004F800BF0837BD4680BD80B582B000AF7860396039687868FFF771FF02467B681A626E
S32D000115F8786801F0EDF800BF0837BD4680BD80B582B000AF78600B46FB70FB7819467868FFF720FF03461946B7
S32D00011620786800F004F800BF0837BD4680BD80B582B000AF7860396039687868FFF74AFF02467B68DA61786804
S32D0001164801F0C6F800BF0837BD4680BD80B586B000AFF860B9607A603B6000237B617B69BA6813441B78002B6C
S32D000116700FD07B69BA6813441B783A687968F86800F0A4FE7B680C337B607B6901337B61E9E700BF1837BD4635
S32D0001169880BD80B582B000AF7860FCF77DFF67210120FCF7E8FE00210220FCF7E4FEA0210320FCF7E0FE5021C9
S32D000116C00420FCF7DCFE20210520FCF7D8FE20210620FCF7D4FE77210720FCF7D0FE00210820FCF7CCFE002108
S32D000116E80920FCF7C8FE00210A20FCF7C4FE04210B20FCF7C0FE7B684FF0FF32DA637B684FF0FF321A6400BFD0
S32D000117100837BD4680BD000080B586B000AFF860B9607A600020FCF7CCFE0346FB75FB7D03F00203002B00F0A5
S32D00011738CE80FCF7DFFEE020FCF790FE0220FEF70BFCFCF7E5FE0120FEF706FCFCF7D2FEA520FCF783FE0120BA
S32D00011760FEF7FEFBFCF7A5FE03469BB21B02BB82FCF79FFE03469AB2BB8A1343BB82FCF798FE03469BB21B02AD
S32D000117887B82FCF792FE03469AB27B8A13437B82BB8A1B09BB827B8A1B097B82FCF7B8FEFB68DB6BB3F1FF3FC5
S32D000117B034D1FB681B6CB3F1FF3F2FD1BA8AFB68DA637A8AFB681A647B8AC3F57F630F337B82BB8A184602F0FD
S32D000117D84DFF49A3D3E9002302F0B2FF02460B461046194603F08EFA0246BB681A607B8A184602F03BFF42A306
S32D00011800D3E9002302F0A0FF02460B461046194603F07CFA02467B681A605AE0FB68DA6BBB8AD31A1946F8681A
S32D0001182800F0D0F80346632B0CDCFB681A6C7B8AD31A1946F86800F0C5F80346632B01DC012300E00023002BCD
S32D000118502FD0BA8AFB68DA637A8AFB681A647B8AC3F57F630F337B82BB8A184602F002FF23A3D3E9002302F096
S32D0001187867FF02460B461046194603F043FA0246BB681A607B8A184602F0F0FE1CA3D3E9002302F055FF024609
S32D000118A00B461046194603F031FA02467B681A600FE0BB68164A1A607B68154A1A60FB684FF0FF32DA63FB6835
S32D000118C84FF0FF321A64002310E001230EE0BB680D4A1A607B680C4A1A60FB684FF0FF32DA63FB684FF0FF3254
S32D000118F01A64002318461837BD4680BDAFF30080144001144001B43F1EE0011EE001AE3F000080BF80B588B0E5
S32D0001191800AFF860B9607A6007F1140207F1180319462648FFF7F4FE0346FB77BB694FF00001184603F000FD63
S32D000119400346002B10D0BB69184602F0A5FE4FF000021D4B02F042FD02460B461046194603F08CF9034604E040
S32D00011968BB69184603F0F2FC0346BA6813607B694FF00001184603F0DFFC0346002B10D07B69184602F084FEB5
S32D000119904FF000020C4B02F021FD02460B461046194603F06BF9034604E0BB69184603F0D1FC03467A681360CE
S32D000119B8FB7F18462037BD4680BD00BF841B00200000E03F80B483B000AF786039603B68002B02DA3B685B4283
S32D000119E03B603B6818460C37BD4680BC704780B584B000AF786039600023FB60786800F012FBFB683A681344C3
S32D00011A081B78002B12D07B6859697B689869FB683A6813441B780246786800F0B9FC786800F011FBFB68013357
S32D00011A30FB60E6E700BF1037BD4680BD80B590B000AF7860396007F10C033A680649184604F00EFD07F10C0328
S32D00011A5819467868FFF7C7FF00BF4037BD4680BDB0BC010080B592B000AF786039604FF00001386803F056FCC5
S32D00011A800346002B1FD0386803F064FC03467B64786C03F045FA03461946386803F08AF903461F49184603F0E3
S32D00011AA88FFA0346184603F051FC03463B6407F10C003B6C7A6C194904F0D6FC22E03B6883F000433B60386868
S32D00011AD003F040FC03467B64786C03F021FA03461946386803F066F903460D49184603F06BFA0346184603F015
S32D00011AF82DFC03463B6407F10C003B6C7A6C084904F0B2FC07F10C0319467868FFF76BFF00BF4837BD4680BD06
S32D00011B2000007A44C0BC0100B4BC010080B584B000AFF860C7E90023D7E9000103F0E6F803461946F868FFF717
S32D00011B4891FF00BF1037BD4680BD80B582B000AF78600B46FB70786800F061FA7B6859697B689A69FB787868E5
S32D00011B7000F012FC786800F06AFA00BF0837BD4680BD80B582B000AF78603960786800F04AFA39687868FFF7C4
S32D00011B982AFF786800F02EFA00BF0837BD4680BD80B582B000AF78603960786800F037FA39687868FFF73EFF83
S32D00011BC0786800F01BFA00BF0837BD4680BD80B584B000AFF860C7E90023F86800F023FAD7E90023F868FFF7EA
S32D00011BE8A1FFF86800F006FA00BF1037BD4680BD80B582B000AF78600B46FB70786800F00EFAFB781946786864
S32D00011C10FFF79FFF786800F0F1F900BF0837BD4680BD000080B483B000AF78600B46FB704D4B1B684C4A23F0AB
S32D00011C38080313604B4B1B684A4A23F480231360484B1B68474A43F480331360454B1B68444A23F44073136043
S32D00011C60414B1B68404A23F4435323F0300313603E4B1A68FB785B0203F400733B4913430B603A4B1A68FB7852
S32D00011C885B101B0203F48073364913430B60344B1A68FB789B101B0103F01003304913430B602F4B1A68FB7891
S32D00011CB0DB105B0103F020032B4913430B602A4B1A68FB781B119B0103F04003264913430B60254B1A68FB7876
S32D00011CD85B11DB01DBB2224913430B60204B1A68FB789B111B0303F480531D4913430B601B4B1A6897F9033016
S32D00011D00DB115BB25B0303F40053174913430B60164B1B68154A23F400331360134B1B68124A43F400331360D8
S32D00011D280F4B1B680E4A43F0080313600D4B1B680C4A43F440731360094B1B68084A43F4435343F03003136049
S32D00011D50064B1B68054A43F48023136000BF0C37BD4680BC704700BF80F00F4040F00F4080B483B000AF786011
S32D00011D780B46FB70464B1B68454A23F008031360444B1B68434A43F480331360414B1B68404A43F4802313606A
S32D00011DA03E4B1B683D4A23F4407313603A4B1B68394A23F4435323F030031360374B1A68FB785B0203F4007315
S32D00011DC8344913430B60334B1A68FB785B101B0203F480732F4913430B602D4B1A68FB789B101B0103F0100356
S32D00011DF0294913430B60284B1A68FB78DB105B0103F02003244913430B60234B1A68FB781B119B0103F040033D
S32D00011E181F4913430B601E4B1A68FB785B11DB01DBB21B4913430B60194B1A68FB789B111B0303F480531649CE
S32D00011E4013430B60144B1A6897F90330DB115BB25B0303F40053104913430B600F4B1B680E4A23F40033136061
S32D00011E680C4B1B680B4A43F400331360084B1B68074A43F008031360064B1B68054A23F48023136000BF0C3715
S32D00011E90BD4680BC704700BF80F00F4040F00F4080B586B000AF78607B6800225A617B6800229A617B681B6A16
S32D00011EB8FB60FB68FB72FB681B0ABB72FB681B0CDBB203F003037B722A217868FFF7A6FE00217868FFF748FF1B
S32D00011EE000217868FFF744FF01217868FFF740FF3F217868FFF73CFF2B217868FFF792FE00217868FFF734FF15
S32D00011F0800217868FFF730FF00217868FFF72CFFEF217868FFF728FF2C217868FFF77EFE314B1B68304A23F426
S32D00011F30407313602F4B1B682E4A23F47F2323F0F00313602C4B1B682B4A23F01D031360274B1A687B681B6B43
S32D00011F58254913430B60254B1A687B685B6B234913430B60224B1A687B689B6B204913430B601E4B1B681D4A0E
S32D00011F8023F0080313601A4B1B68194A43F48023136000237B617B69EF2B19D800233B613B69B3F5A07F0FD210
S32D00011FA8114B1B68104A23F4003313600E4B1B680D4A43F4003313603B6901333B61EBE77B6901337B61E2E701
S32D00011FD0084B1B68074A43F008031360044B1B68034A23F48023136000BF1837BD4680BD40F00F4080F00F4032
S32D00011FF8C0F00F4080B483B000AF78607B689B69002B07DD7B685B695A1C7B685A617B6800229A6100BF0C371A
S32D00012020BD4680BC704780B582B000AF78607B685A697B685B689A4205DB7B6800225A617868FFF72DFF00BF24
S32D000120480837BD4680BD80B582B000AF78607B689B695A1C7B689A617B689A697B689B689A4205D17868FFF76D
S32D00012070C5FF7868FFF7D7FF00BF0837BD4680BD80B586B002AFF860B9607A600123009301237A68B968F868EE
S32D0001209800F059F8F86800F0D7FA00BF1037BD4680BD80B485B000AF786039607B681B68FB603B681A687B681F
S32D000120C01A603B68FA681A6000BF1437BD4680BC704780B586B002AFF860B9607A603B60BA683B681A447B68F0
S32D000120E8009313467A68B968F86800F0ABF8BA683B68D118BA683B68D0187A68BB691344009303467A68F86811
S32D0001211000F09CF8BA683B68D1187A68BB69D0187A68BB6913440093BB680246F86800F08DF87A68BB691A44EC
S32D000121387B680093BB68B968F86800F083F800BF1037BD4680BD80B588B000AFF860B9607A603B60FB681B78B5
S32D00012160022B03D0FB681B78032B11D17B68FB61BA6AFB691344013BBB61FB68DA68BB68D31A3B613B683A693D
S32D00012188D31A01337B610DE0BB68FB613A68FB691344013BBB617B687B61BA6A7B691344013B3B612A21F86869
S32D000121B0FFF738FDFB691B0ADBB203F00F03DBB21946F868FFF7D4FDFB69DBB21946F868FFF7CEFDBB691B0AED
S32D000121D8DBB203F00F03DBB21946F868FFF7C4FDBB69DBB21946F868FFF7BEFD2B21F868FFF714FD7B691B0A66
S32D00012200DBB203F00F03DBB21946F868FFF7B0FD7B69DBB21946F868FFF7AAFD3B691B0ADBB203F00F03DBB279
S32D000122281946F868FFF7A0FD3B69DBB21946F868FFF79AFD2C21F868FFF7F0FC00BF2037BD4680BD90B58BB053
S32D0001225000AFF860B9607A603B603A68BB68D31A1946F868FFF7B2FBF861BA6B7B68D31A1946F868FFF7AAFB0E
S32D00012278B861BA69FB699A42CCBF01230023FB75FB7D002B0CD03A1D07F1080311461846FFF707FF3B4607F176
S32D000122A038011846FFF701FFBA683B689A420CDD3A4607F1080311461846FFF7F6FE3B1D07F138011846FFF7F9
S32D000122C8F0FE3A68BB689A4206D1BB687A681946F868FFF7D1FE55E0BA6B7B68D31A184602F01AFE04463A687A
S32D000122F0BB68D31A184602F013FE03461946204602F016FF03463B617B68184602F008FE03467B62BB683B6235
S32D000123183B683A6A9A4235DCFB7D002B14D0786A02F0B6F94FF00002184B02F053F802460B461046194602F037
S32D000123409DFC03463A6A1946F868FFF799FE13E0786A02F0A1F94FF000020E4B02F03EF802460B46104619462B
S32D0001236802F088FC03461A46396AF868FFF784FE3969786A02F01CFD03467B623B6A01333B62C5E72C37BD466F
S32D0001239090BD00BF0000E03F80B584B000AFF860B9607A60FB707A6813465B0013449B00991CBA6813461B0151
S32D000123B81344DA1CFB78F86800F004F800BF1037BD4680BD80B58EB002AFF860B9607A60FB70FB780A2B06D14B
S32D000123E0F868FFF720FEF868FFF708FEF2E0FB787D2B02D8FB781F2B01D82023FB70FB78203BFB7011230093F3
S32D000124080C237A68B968F868FFF79DFEFA7813469B0013446F4AD35C3B75FA7813469B00134401336B4AD35C58
S32D000124307B75FA7813469B0013440233674AD35CBB75FA7813469B0013440333634AD35CFB75FA7813469B00E6
S32D00012458134404335F4AD35C3B760023BB62BB6A062B00F3A180F86800F050F9F86800F0B3F8002387F82F30FF
S32D0001248000237B627B6A042B35DC07F114027B6A13441B7803F00103002B14BF01230023FB76FB7E002B11D0F9
S32D000124A897F82F3083F00103DBB2002B03D0F86800F0CAF802E0F86800F08EF8F86800F08BF80DE097F82F309D
S32D000124D0002B03D0F86800F01DF902E0F86800F07FF8F86800F07CF8FB7E87F82F307B6A01337B62C6E797F883
S32D000124F82F30002B03D0F86800F008F902E0F86800F06AF8F86800F067F8002387F82F3000233B623B6A042B2F
S32D0001252042DC07F114023B6A13441B7803F00103002B14BF01230023BB76BB7E002B11D097F82F3083F00103BA
S32D00012548DBB2002B03D0F86800F07EF802E0F86800F042F8F86800F03FF80DE097F82F30002B03D0F86800F0F7
S32D00012570D1F802E0F86800F033F8F86800F030F8BB7E87F82F3007F114023B6A13441B785B08D9B207F11402EE
S32D000125983B6A13440A461A703B6A01333B62B9E7BB6A0133BB625AE7F86800F0AFF8002387F82F300123FB61F9
S32D000125C0FB69232B06DCF86800F00AF8FB690133FB61F5E73037BD4680BD00BF400B002080B483B000AF786077
S32D000125E8174B1B68164A43F480331360154B1B68144A23F008031360114B1B68104A43F4802313600E4B1B68EE
S32D000126100D4A23F4003313600B4B1B680A4A43F400331360094B1B68084A43F008031360054B1B68044A23F46B
S32D000126388023136000BF0C37BD4680BC704700BF40F00F4080F00F4080B483B000AF78602B4B1B682A4A43F4D6
S32D0001266080331360294B1B68284A23F008031360254B1B68244A43F480231360224B1B68214A23F440731360E5
S32D00012688204B1B681F4A23F47F2323F0F00313601D4B1B681C4A23F01D031360184B1A687B685B6A1649134361
S32D000126B00B60164B1A687B689B6A144913430B60134B1A687B68DB6A114913430B600E4B1B680D4A23F4003307
S32D000126D813600B4B1B680A4A43F400331360094B1B68084A43F008031360054B1B68044A23F48023136000BF6F
S32D000127000C37BD4680BC704740F00F4080F00F40C0F00F4080B483B000AF78602B4B1B682A4A43F4803313607C
S32D00012728294B1B68284A23F008031360254B1B68244A43F480231360224B1B68214A23F440731360204B1B6854
S32D000127501F4A23F47F2323F0F00313601D4B1B681C4A23F01D031360184B1A687B681B6B164913430B60164BF9
S32D000127781A687B685B6B144913430B60134B1A687B689B6B114913430B600E4B1B680D4A23F4003313600B4BBF
S32D000127A01B680A4A43F400331360094B1B68084A43F008031360054B1B68044A23F48023136000BF0C37BD4629
S32D000127C880BC704740F00F4080F00F40C0F00F4080B485B000AF78607B681B6AFB60FB68FB72FB681B0ABB727A
S32D000127F0FB681B0CDBB203F003037B727B6800225A627B6800229A627B680022DA627B6800221A637B68002233
S32D000128185A637B6800229A637B681A6BFB7A5B0203F400731A437B681A637B681A6BFB7A5B101B0203F4807322
S32D000128401A437B681A637B685A6BFB7A9B101B0103F010031A437B685A637B685A6BFB7ADB105B0103F020034B
S32D000128681A437B685A637B685A6BFB7A1B119B0103F040031A437B685A637B685A6BFB7A5B11DB01DBB21A43DD
S32D000128907B685A637B685A6BFB7A9B111B0303F480531A437B685A637B685A6B97F90B30DB115BB25B0303F40A
S32D000128B800531A437B685A637B685A6BBB7A9B0303F480431A437B685A637B685A6BBB7A5B10DB039BB21A439F
S32D000128E07B685A637B685A6BBB7A9B101B0403F480331A437B685A637B685A6BBB7ADB105B0403F400331A432D
S32D000129087B685A637B685A6BBB7A1B119B0403F480231A437B685A637B685A6BBB7A5B11DB0403F400231A4322
S32D000129307B685A637B689A6BBB7A9B1103F001031A437B689A637B689A6B97F90A30DB115BB29B0003F004039B
