S01100002E2E2F50726F746575732E73313966
S32D0000C000000000205DC2000011C3000017C300001DC3000023C3000029C3000000000000000000000000000073
S32D0000C028000000002FC3000035C30000000000003BC3000041C3000075D3000081D300008DD3000099D3000096
S32D0000C050A5D30000B1D30000BDD30000C9D30000D5D30000E1D30000EDD30000F9D3000005D4000011D40000F4
S32D0000C0781DD4000029D4000035D4000041D400004DD4000059D4000065D4000071D400007DD4000089D4000014
S32D0000C0A095D40000A1D40000ADD40000B9D40000C5D40000D1D40000DDD40000E9D40000F5D4000001D500003B
S32D0000C0C80DD5000019D5000025D5000031D500003DD5000049D5000055D5000061D500006DD5000079D500005A
S32D0000C0F085D500002D1C010091D500009DD50000A9D50000B5D50000C1D50000CDD50000D9D50000E5D50000FE
S32D0000C118F1D50000FDD5000009D6000015D6000021D600002DD6000039D6000045D6000051D600005DD6000019
S32D0000C14069D6000075D6000081D600008DD6000021FD000099D60000A5D60000B1D60000BDD60000C9D60000CC
S32D0000C168D5D60000E1D60000EDD60000F9D6000005D7000011D700001DD7000029D7000035D7000041D70000D9
S32D0000C1904DD7000059D7000065D7000061F9000029F80000C5F80000F9D0000001FA000071D700007DD7000059
S32D0000C1B889D70000149C010000000020C8160000149C01000000FF1F00000000C8160020F80500000000FF1F62
S32D0000C1E00000000080B489B000AFF860B9607A60BB68FB61FB68BB6100237B617A697B689A420BD2BA69131DFB
S32D0000C208BB61FB69191DF96112681A607B6904337B61EFE700BF2437BD4680BC704780B485B000AF786039609E
S32D0000C2307B68FB600023BB60BA683B689A4208D2FB681A1DFA6000221A60BB680433BB60F2E700BF1437BD46FE
S32D0000C25880BC704780B586B000AF72B6234B4CF220521A80214B4DF628121A80204B4FF4E9721A801F4B7B615F
S32D0000C2807B691F4A934214D27B691A1D7A611B683B617B691A1D7A611B68FB607B691A1D7A611B68BB60BA68E9
S32D0000C2A8F9683869FFF79AFFE6E77B69134A93420ED27B691A1D7A611B68FB607B691A1D7A611B68BB60B9688B
S32D0000C2D0F868FFF7A8FFECE70B4B7B600B4A7B681A6006F0BDFF62B600F0CEFF00F0C8F8FEE700BF0E2005403F
S32D0000C2F800200540BCC10000D4C10000E4C1000008ED00E000C0000080B400AFFEE780B400AFFEE780B400AFF4
S32D0000C320FEE780B400AFFEE780B400AFFEE780B400AFFEE780B400AFFEE780B400AFFEE780B400AFFEE780B426
S32D0000C34800AFFEE7FFFFFFFFFFFFFFFFFFFFFFFFFFFFFFFFFFFFFFFFFFFFFFFFFFFFFFFFFFFFFFFFFFFFFFFF57
S32D0000C370FFFFFFFFFFFFFFFFFFFFFFFFFFFFFFFFFFFFFFFFFFFFFFFFFFFFFFFFFFFFFFFFFFFFFFFFFFFFFFFFC7
S32D0000C398FFFFFFFFFFFFFFFFFFFFFFFFFFFFFFFFFFFFFFFFFFFFFFFFFFFFFFFFFFFFFFFFFFFFFFFFFFFFFFFF9F
S32D0000C3C0FFFFFFFFFFFFFFFFFFFFFFFFFFFFFFFFFFFFFFFFFFFFFFFFFFFFFFFFFFFFFFFFFFFFFFFFFFFFFFFF77
S32D0000C3E8FFFFFFFFFFFFFFFFFFFFFFFFFFFFFFFFFFFFFFFFFFFFFFFFFFFFFFFFFFFFFFFFFFFFFFFFFEFFFFFF50
S32D0000C44010B5054C237833B9044B13B10448AFF300800123237010BDC81600200000000010C4000008B5034B4F
S32D0000C4681BB103490348AFF3008008BD00000000CC16002010C4000080B586B000AF00237B6100233B6103F0BB
S32D0000C490D3F80346FB6003F0CFF80346BB6000237B6000233B603A463B1D1946384804F035FB034683F001039A
S32D0000C4B8DBB2002B08D0354805F03AFB03461946314804F02EFCEAE7314800F0EAFC0346002B0CBF012300233A
S32D0000C4E0DBB2002B08D02C4800F0CBFC02460B46274804F02DFCEBE703F09EF80246FB68D31A264A934294BFC3
S32D0000C50801230023DBB2002B38D03A697B699A4205D07B693B6103F08BF80346BB607B69052B27D801A252F86C
S32D0000C53023F000BF4DC5000053C500005DC5000067C500007DC5000075C5000001237B6114E0134800F0A0F93F
S32D0000C55878610FE0114800F0EFFC78610AE0104800F030FA0F4800F0C5F803E00C4800F029FA00BF012003F063
S32D0000C5801FF8B9E7002318461837BD4680BD00BF681B0020B41B0020E8160020BFD40100A0170020F8170020BD
S32D0000C5A81817002060170020F0B5A3B020AF786039607B68012B5CD13B684FF6FF72934257D12E4800F03EFC15
S32D0000C5D02C4E6D4606F108040FCC0FC50FCC0FC594E8030085E8030096E80C00264800F0BDF9244E6D4606F106
S32D0000C5F808040FCC0FC50FCC0FC594E8030085E8030096E80C001F4800F04AF81C4E6D4606F108040FCC0FC5CA
S32D0000C6200FCC0FC50FCC0FC594E80F0085E80F0096E80C00164800F00DF9134E134B10AC1D460FCD0FC40FCD40
S32D0000C6480FC40FCD0FC495E80F0084E80F006D4606F108040FCC0FC50FCC0FC50FCC0FC594E80F0085E80F0071
S32D0000C67096E80C00074800F033FC00BF0C37BD46F0BD00BFE81600201817002060170020A0170020F817002029
S32D0000C69880B500AF4FF6FF710120FFF785FF80BD82B0B0B582B000AF786007F1180181E80C007B680E4A0221CF
S32D0000C6C0184601F069F87B6803F1080407F118050FCD0FC40FCD0FC495E80F0084E80F007B6800229A637B685A
S32D0000C6E818460837BD46BDE8B04002B0704700BF6666E64080B582B000AF78607B684FF00001184601F0ACF8D1
S32D0000C710012318460837BD4680BD000080B582B000AF78607B689B6B002B05D102F084FF03461A467B689A6324
S32D0000C7384FF000020F4B786800F052F802F078FF02467B689B6BD31A40F6956293428CBF01230023DBB2002B4B
S32D0000C76007D07B6800229A637868FFF7C7FF034600E0002318460837BD4680BD00003E4080B582B000AF7860A1
S32D0000C7887B689B6B002B05D102F052FF03461A467B689A634FF000020F4B786800F020F802F046FF02467B68E8
S32D0000C7B09B6BD31A40F6956293428CBF01230023DBB2002B07D07B6800229A637868FFF795FF034600E000238D
S32D0000C7D818460837BD4680BD00003EC0000000002DE9904385B000AFF860C7E90023FC6813A3D3E90023D7E9A7
S32D0000C800000105F085FD02460B4690469946104805F092F90346184605F022FD02460B464046494605F09EFE72
S32D0000C82802460B461046194606F050F803461946204601F015F800BF1437BD46BDE890836666666666662740BA
S32D0000C850B41B002082B080B582B000AF786007F1100181E80C007B6800221A607B68083307F1100148221846BF
S32D0000C87807F02AF87B6800221A657B6800225A657B6818460837BD46BDE8804002B0704780B582B000AF7860F2
S32D0000C8A07B681B6D032B4BD801A252F823F000BFC1C80000E1C8000001C9000021C900007B6803F108014FF0EA
S32D0000C8C80002244B084600F0C7F902467B681B6D1A447B681A652FE07B6803F108014FF000021D4B084600F08A
S32D0000C8F083F802467B681B6D1A447B681A651FE07B6803F108014FF00002164B084600F02BF902467B681B6D96
S32D0000C9181A447B681A650FE07B6803F108014FF000020F4B084600F063F802467B681B6D1A447B681A6500BFFC
S32D0000C9407B681B6D042B04D17B6800221A65022300E0012318460837BD4680BD00804B40000014400000314000
S32D0000C96800003E4082B0B0B582B000AF786007F1180181E80C007B68114A0021184600F007FF7B6808330E4A24
S32D0000C9900121184600F000FF7B6803F1100407F118050FCD0FC40FCD0FC495E80F0084E80F007B6800221A6422
S32D0000C9B87B6818460837BD46BDE8B04002B070476666E64080B582B000AF78607B684FF00001184600F044FF3C
S32D0000C9E07B6808334FF00001184600F03DFF012318460837BD4680BDF0B587B002AFF860C7E90023FB681B6C9E
S32D0000CA08002B05D102F014FE03461A46FB681A644FF00002224BCDE900234FF00002204BF86800F095F902F06E
S32D0000CA3003FE0246FB681B6CD31A184605F0EEFB04460D4616A3D3E90023D7E9000105F05FFC02460B46104647
S32D0000CA5819464FF00002134B05F080FD02460B4601210E462046294605F0DEFE0346002B01D100231E46F3B219
S32D0000CA80002B07D0FB6800221A64F868FFF79EFF034600E0002318461437BD46F0BD00BF000000000088C340A1
S32D0000CAA80000494000805340F0B587B002AFF860C7E90023FB681B6C002B05D102F0B8FD03461A46FB681A64F0
S32D0000CAD04FF00002224BCDE900234FF00002204BF86800F039F902F0A7FD0246FB681B6CD31A184605F092FBEE
S32D0000CAF804460D4616A3D3E90023D7E9000105F003FC02460B46104619464FF00002134B05F024FD02460B468A
S32D0000CB2001210E462046294605F082FE0346002B01D100231E46F3B2002B07D0FB6800221A64F868FFF742FF19
S32D0000CB48034600E0002318461437BD46F0BD00BF000000000088C340000049C000805340F0B587B002AFF860CF
S32D0000CB70C7E90023FB681B6C002B05D102F05CFD03461A46FB681A644FF00002324BCDE900234FF00002314BB0
S32D0000CB98F86800F0DDF802F04BFD0246FB681B6CD31A184605F036FB04460D4620A3D3E90023D7E9000105F078
S32D0000CBC0A7FB02460B46104619461DA3D3E9002305F0C8FC02460B46104619461AA3D3E9002305F095FB024648
S32D0000CBE80B461046194618A3D3E9002305F0B6FC02460B4601210E462046294605F014FE0346002B01D1002384
S32D0000CC101E46F3B2002B07D0FB6800221A64F868FFF7D4FE034600E0002318461437BD46F0BD00BFAFF300803A
S32D0000CC38000000000088B3400000000000F07B4000000000006078400000000000B0734000004940000049C09B
S32D0000CC60F0B587B002AFF860C7E90023FB681B6C002B05D102F0E0FC03461A46FB681A644FF00002324BCDE937
S32D0000CC8800234FF00002314BF86800F061F802F0CFFC0246FB681B6CD31A184605F0BAFA04460D4620A3D3E9F6
S32D0000CCB00023D7E9000105F02BFB02460B46104619461DA3D3E9002305F04CFC02460B46104619461AA3D3E966
S32D0000CCD8002305F019FB02460B461046194618A3D3E9002305F03AFC02460B4601210E462046294605F098FD81
S32D0000CD000346002B01D100231E46F3B2002B07D0FB6800221A64F868FFF758FE034600E0002318461437BD46EA
S32D0000CD28F0BD00BFAFF30080000000000088B3400000000000F07B4000000000006078400000000000B07340AE
S32D0000CD50000049C0000049402DE9F04385B000AFF860C7E90023FE6833A3D3E90023D7E9000105F0CDFA0246EB
S32D0000CD780B46104619464FF000024FF0000305F00DF902460B46144683F000452C4804F0CFFE0346184605F08D
S32D0000CDA05FFA02460B4626A1D1E9000105F0DAFB02460B462046294605F0AAFA02460B461046194605F086FD5A
S32D0000CDC803461946304600F04BFDFB6803F108044FF000024FF00003D7E90C0105F0DEF802460B46904699461B
S32D0000CDF0154804F0A1FE0346184605F031FA02460B460FA1D1E9000105F0ACFB02460B464046494605F07CFAA5
S32D0000CE1802460B461046194605F058FD03461946204600F01DFD00BF1437BD46BDE8F0837B14AE47E17AF43F05
S32D0000CE406666666666662740B41B002080B582B000AF78607B6828330021184602F01CFE7B682933072118468E
S32D0000CE6802F016FE7B682A330821184602F0FCFB7B6818460837BD4680BD80B582B000AF78607B68283318469C
S32D0000CE9002F012FE0346184605F0E2F902460B46104619460837BD4680BD90B583B000AF78607B682833184693
S32D0000CEB802F0FEFD0346012214464FF07E51184606F000F80346002B01D100231C46E3B218460C37BD4690BDEE
S32D0000CEE082B0B0B582B000AF786007F1180181E80C007B68184607F118034822194606F0E7FC7B6803F1480435
S32D0000CF0807F160050FCD0FC40FCD0FC40FCD0FC495E80F0084E80F007B680022C3F888207B680022C3F88C20B6
S32D0000CF307B6818460837BD46BDE8B04002B0704780B582B000AF78607B68D3F888300A2B00F2C18001A252F8A9
S32D0000CF5823F000BF89CF0000A9CF0000C9CF0000E9CF000009D0000029D0000049D0000069D0000085D0000040
S32D0000CF80A1D00000C1D0000079684FF00002544B0846FFF731FD02467B68D3F888301A447B68C3F8882096E086
S32D0000CFA879684FF000024D4B0846FFF7D9FD02467B68D3F888301A447B68C3F8882086E079684FF00002464B1C
S32D0000CFD00846FFF711FD02467B68D3F888301A447B68C3F8882076E079684FF000023F4B0846FFF735FE0246CE
S32D0000CFF87B68D3F888301A447B68C3F8882066E079684FF00002384B0846FFF7F1FC02467B68D3F888301A44D9
S32D0000D0207B68C3F8882056E079684FF000022D4B0846FFF715FE02467B68D3F888301A447B68C3F8882046E0FD
S32D0000D04879684FF00002264B0846FFF7D1FC02467B68D3F888301A447B68C3F8882036E07B6848331846FFF7FC
S32D0000D07055FB02467B68D3F888301A447B68C3F8882028E07B6848331846FFF779FB02467B68D3F888301A44B6
S32D0000D0987B68C3F888201AE079684FF00002134B0846FFF701FD02467B68D3F888301A447B68C3F888200AE02C
S32D0000D0C07B681846FFF782FC7B6848331846FFF715FB032300E0022318460837BD4680BD000020400080514052
S32D0000D0E80000184000005440000022400000144080B500AF0F4BD3F8A03003F48053002B14BF01230023DBB203
S32D0000D110002B10D0094BD3F8A030084A23F48053C2F8A030064804F0B1FE064B1B68054A23F40053136000BF81
S32D0000D13880BD00BF00C00440F01B0020C0F00F4080B400AF124B4FF480725A63114B5B69104A43F400535361B5
S32D0000D1600E4B1B680D4A43F4005313600A4B0C4A1A630C4BD3F888310A4A43F08063C2F88831084B9B68074AEA
S32D0000D18843F08063936000BFBD4680BC704700BF00C00440C0F00F4003010A0000E100E080B400AF334B0022A7
S32D0000D1B05A70324B98221A70304B9B79DBB203F01003002B14BF01230023DBB2002B00D0F2E72A4B9B79DBB2E8
S32D0000D1D89B08DBB203F00303022B14BF01230023DBB2002B00D0F0E7224B18221A71214B00225A71204B03F56C
S32D0000D20080531A461F4B53641C4B54225A711B4B9B79DBB203F02003002B0CBF01230023DBB2002B00D0F2E749
S32D0000D228144B9B79DBB203F04003002B0CBF01230023DBB2002B00D0F2E70E4B1B78DBB20C4A03F03F03DBB273
S32D0000D25013700A4B9B79DBB29B08DBB203F00303032B14BF01230023DBB2002B00D0F0E700231846BD4680BCA7
S32D0000D278704700BF00400640007004400000130180B500AF314B03F580539B6B2F4A43F4785302F58052936359
S32D0000D2A0FFF752FFFFF780FF2B4B58221A602A4B1B684FF47A7202FB03F3284A1360274B1B681A46234B03F580
S32D0000D2C880535B6C1B0E03F00F030133B2FBF3F31A46214B1A601D4B03F58053DB6B1B4A43F0225302F5805214
S32D0000D2F0D363184B03F580531B6B164A43F0006302F580521363174B4FF480721A61642002F042F8134B5B690D
S32D0000D318124A23F010035361104B00221A600F4B10225A610E4803F0D5F802F0A9FC02F007FD0C4802F08EF804
S32D0000D3400B4804F0F7FD4FF4FA6002F039F900BF80BD00BF00700440B41A0020B01A0020B81A002000D0034077
S32D0000D368681B0020AC1A0020601C002080B500AFFEF7E5FF00BF80BD80B500AFFEF7DFFF00BF80BD80B500AF22
S32D0000D390FEF7D9FF00BF80BD80B500AFFEF7D3FF00BF80BD80B500AFFEF7CDFF00BF80BD80B500AFFEF7C7FFBF
S32D0000D3B800BF80BD80B500AFFEF7C1FF00BF80BD80B500AFFEF7BBFF00BF80BD80B500AFFEF7B5FF00BF80BD9E
S32D0000D3E080B500AFFEF7AFFF00BF80BD80B500AFFEF7A9FF00BF80BD80B500AFFEF7A3FF00BF80BD80B500AFC4
S32D0000D408FEF79DFF00BF80BD80B500AFFEF797FF00BF80BD80B500AFFEF791FF00BF80BD80B500AFFEF78BFF36
S32D0000D43000BF80BD80B500AFFEF785FF00BF80BD80B500AFFEF77FFF00BF80BD80B500AFFEF779FF00BF80BDD9
S32D0000D45880B500AFFEF773FF00BF80BD80B500AFFEF76DFF00BF80BD80B500AFFEF767FF00BF80BD80B500AFFF
S32D0000D480FEF761FF00BF80BD80B500AFFEF75BFF00BF80BD80B500AFFEF755FF00BF80BD80B500AFFEF74FFFAE
S32D0000D4A800BF80BD80B500AFFEF749FF00BF80BD80B500AFFEF743FF00BF80BD80B500AFFEF73DFF00BF80BD15
S32D0000D4D080B500AFFEF737FF00BF80BD80B500AFFEF731FF00BF80BD80B500AFFEF72BFF00BF80BD80B500AF3B
S32D0000D4F8FEF725FF00BF80BD80B500AFFEF71FFF00BF80BD80B500AFFEF719FF00BF80BD80B500AFFEF713FF26
S32D0000D52000BF80BD80B500AFFEF70DFF00BF80BD80B500AFFEF707FF00BF80BD80B500AFFEF701FF00BF80BD50
S32D0000D54880B500AFFEF7FBFE00BF80BD80B500AFFEF7F5FE00BF80BD80B500AFFEF7EFFE00BF80BD80B500AF79
S32D0000D570FEF7E9FE00BF80BD80B500AFFEF7E3FE00BF80BD80B500AFFEF7DDFE00BF80BD80B500AFFEF7D7FEA1
S32D0000D59800BF80BD80B500AFFEF7D1FE00BF80BD80B500AFFEF7CBFE00BF80BD80B500AFFEF7C5FE00BF80BD8F
S32D0000D5C080B500AFFEF7BFFE00BF80BD80B500AFFEF7B9FE00BF80BD80B500AFFEF7B3FE00BF80BD80B500AFB5
S32D0000D5E8FEF7ADFE00BF80BD80B500AFFEF7A7FE00BF80BD80B500AFFEF7A1FE00BF80BD80B500AFFEF79BFE19
S32D0000D61000BF80BD80B500AFFEF795FE00BF80BD80B500AFFEF78FFE00BF80BD80B500AFFEF789FE00BF80BDCA
S32D0000D63880B500AFFEF783FE00BF80BD80B500AFFEF77DFE00BF80BD80B500AFFEF777FE00BF80BD80B500AFF0
S32D0000D660FEF771FE00BF80BD80B500AFFEF76BFE00BF80BD80B500AFFEF765FE00BF80BD80B500AFFEF75FFE90
S32D0000D68800BF80BD80B500AFFEF759FE00BF80BD80B500AFFEF753FE00BF80BD80B500AFFEF74DFE00BF80BD06
S32D0000D6B080B500AFFEF747FE00BF80BD80B500AFFEF741FE00BF80BD80B500AFFEF73BFE00BF80BD80B500AF2C
S32D0000D6D8FEF735FE00BF80BD80B500AFFEF72FFE00BF80BD80B500AFFEF729FE00BF80BD80B500AFFEF723FE08
S32D0000D70000BF80BD80B500AFFEF71DFE00BF80BD80B500AFFEF717FE00BF80BD80B500AFFEF711FE00BF80BD41
S32D0000D72880B500AFFEF70BFE00BF80BD80B500AFFEF705FE00BF80BD80B500AFFEF7FFFD00BF80BD80B500AF68
S32D0000D750FEF7F9FD00BF80BD80B500AFFEF7F3FD00BF80BD80B500AFFEF7EDFD00BF80BD80B500AFFEF7E7FD83
S32D0000D77800BF80BD80B500AFFEF7E1FD00BF80BD80B500AFFEF7DBFD00BF80BD0000000080B584B000AFF860B7
S32D0000D7A00B467A60FB72FB68FA7A1A71FB6800225A711749786805F0A7FB0346002B02D0134B7B600AE04FF092
S32D0000D7C87E51786805F088FB0346002B02D04FF07E537B60786804F03FFD09A3D3E9002304F092FD02460B4624
S32D0000D7F01046194605F06EF80246FB681A60FB6818461037BD4680BDABAAAAAAAAAA20400000404180B584B047
S32D0000D81800AF786039603B687F2B02DD7F23FB7308E03B6813F1800F02DA8023FB7301E03B68FB737B685B79D2
S32D0000D840FA7B9A4209D07B68FA7B5A717B681979FA7B1E23034801F03BFE00BF1037BD4680BD00BFAC1A0020E2
S32D0000D868B0B584B000AF786039603749386805F029FB0346002B02D0334B3B6008E03349386805F03DFB0346C7
S32D0000D890002B01D02F4B3B60386804F0E1FC04460D467B681B68184604F0DAFC4FF00002294B04F057FE024677
S32D0000D8B80B462046294604F027FD02460B461046194605F003F803463B604FF00001386805F00CFB0346002B92
S32D0000D8E010D0386804F0BCFC17A3D3E9002304F00FFD02460B461046194604F0A3FF0346FB6018E0386804F041
S32D0000D908ABFC4FF00002134B04F0FEFC02460B46104619464FF000020D4B04F01FFE02460B461046194604F083
S32D0000D93089FF0346FB60F9687868FFF76BFF00BF1037BD46B0BD00BF52B81E85EB51F43F0000C8C20000C84217
S32D0000D958000059400000604080B483B000AF03460A46FB711346BB71BB79002B03D1134B00221A7002E0114B4D
S32D0000D98001221A703823FB710E4B1A78FB791343FB710D4B9B78DBB20B4A43F01003DBB29370094B9B78DBB2CD
S32D0000D9A8074A43F02003DBB29370054AFB79137100BF0C37BD4680BC704700BF881800200060064080B483B04F
S32D0000D9D000AF01237B607B68312B04DC00BF7B6801337B60F7E700BF0C37BD4680BC704780B582B000AF034676
S32D0000D9F80A46FB711346BB71134B1B7800211846FFF7AAFF00F024F8104AFB79137100F01FF80E4ABB7913713C
S32D0000DA2000F01AF80B4B9B78DBB20A4A23F02003DBB29370074B9B78DBB2064A23F01003DBB29370FFF7C2FF17
S32D0000DA4800BF0837BD4680BD891800200060064080B483B000AF174B1B78002B24D100237B60154BDB78DBB2A2
S32D0000DA7003F00203002B0CBF01230023DBB2002B0DD07B6842F21072934203DD0B4B01221A7004E07B68013372
S32D0000DA987B6000BFE5E7084BDB78DBB2064A43F00203DBB2D37000E000BF0C37BD4680BC704700BF8A18002016
S32D0000DAC00060064080B582B000AF0346FB71FB79184600F05FF800BF0837BD4680BD80B582B000AF03460A46C1
S32D0000DAE8FB711346BB7100F035F8FB795B00DBB21846FFF7E3FFBB791846FFF7DFFF00F037F800BF0837BD46EA
S32D0000DB1080BD80B500AFFF2000F03CF80346184680BD80B584B000AF0346FB7100F016F8FB795B005BB243F0C5
S32D0000DB3801035BB2DBB21846FFF7C0FFFFF7E5FF0346FB7300F014F8FB7B18461037BD4680BD000080B400AF43
S32D0000DB60044B9B68034A43F48013936000BFBD4680BC704740F00F4080B400AF044B5B68034A43F48013536048
S32D0000DB8800BFBD4680BC704740F00F4080B485B000AF0346FB710023BB73164BDB6A03F00043012B0CBF012326
S32D0000DBB00023DBB2002B03D0FB7B0133FB73F0E70E4BDB6A0D4A43F00043D3620B4AFB7953630A4BDB6A03F4FA
S32D0000DBD80033002B0CBF01230023DBB2002B00D0F3E7044B9B6BBB73BB7B18461437BD4680BC704700C00A40EB
S32D0000DC0080B582B000AF204B03F580531B6B1E4A43F4805302F5805213631C4B4FF480721A651B4B5B691A4ACA
S32D0000DC2843F480135361FFF7A3FF164B4FF400725A65144B4FF400729A65124B4FF40072DA65124B124A1A604C
S32D0000DC50104B124ADA6000237B607B68092B06DCFF20FFF72FFF7B6801337B60F5E704A1D1E9000101F0BAFCA6
S32D0000DC7800BF0837BD4680BD9A9999999999B93F0070044000A0044040F00F4000C00A40000C00800500003EC1
S32D0000DCA090B486B000AFF860B9607A60FB68534A93420AD1524B03F580535B6B504A43F4806302F580525363D1
S32D0000DCC845E0FB684D4A93420AD14B4B03F580535B6B494A43F4006302F58052536336E0FB68474A93420AD1D2
S32D0000DCF0434B03F580535B6B414A43F4805302F58052536327E0FB68404A93420AD13C4B03F580535B6B3A4A93
S32D0000DD1843F4005302F58052536318E0FB683A4A93420AD1344B03F580539B6A324A43F4806302F580529362A2
S32D0000DD4009E02F4B03F580539B6A2D4A43F4006302F580529362FB68DB78DBB223F00C03DAB2FB68DA70FB68B2
S32D0000DD6800229A70BB684FF47A7203FB02F27B681B0192FBF3F39CB2FB681B78DBB223F01F03FB75230A9BB2BB
S32D0000DD90DBB203F01F03DAB2FB7D1343DAB2FB681A70E2B2FB685A70BB684FF4FA4203FB02F27B681B0192FB0F
S32D0000DDB8F3F39AB263019BB2D31A9CB2FB689B7ADBB223F01F03FB75E3B203F01F03DAB2FB7D1343DAB2FB6882
S32D0000DDE09A72FB68DB78DBB243F00C03DAB2FB68DA7000BF1837BD4690BC704700A006400070044000B00640A7
S32D0000DE0800C0064000D0064000A00E4080B483B000AF78607B681B79DBB203F02003002B0CBF01230023DBB210
S32D0000DE30002B00D0F2E77B68DB79DBB218460C37BD4680BC704780B483B000AF78600B46FB707B681B79DBB2E7
S32D0000DE585BB2DB43DBB2DB09DBB2002B00D0F4E77B68FA78DA7100BF0C37BD4680BC704780B487B000AFF86093
S32D0000DE80B9607A60FB687B617B685A1E7A60002B14BF01230023DBB2002B06D07B695A1C7A61BA68D2B21A70D5
S32D0000DEA8EEE700BF1C37BD4680BC704780B584B000AF786039607B681B6BFB60FA683B689A4252D07B681B79A8
S32D0000DED0002B35D07B6858787B6803F134010123FA6801F0F7F80346002B14BF01230023DBB2002B01D0012394
S32D0000DEF83CE07B6800221A717B685A6A7B681B6A1344FA689A4217D27B68DB78FB72FB7A012B11D97B681B6A2D
S32D0000DF20FA681344FB607B6858787B6803F134010123FA6801F0CEF8FB7A013BFB72EAE73B68002B15D07B683E
S32D0000DF4858787B6803F1340101233A6800F0DAFF0346002B14BF01230023DBB2002B01D0012303E07B683A689D
S32D0000DF701A63002318461037BD4680BD80B584B000AF786000217868FFF794FF0346FB73FB7B002B40F09380E9
S32D0000DF987B681B78032B7DD17B685B79002B79D07B6800221A637B6834334FF4007200211846FFF75DFF7B6809
S32D0000DFC0552283F832227B68AA2283F833227B68522283F834207B68522283F835207B68612283F836207B6807
S32D0000DFE8412283F837207B68722283F818227B68722283F819227B68412283F81A227B68612283F81B227B687F
S32D0000E0101B69DAB27B6883F81C227B681B699BB21B0A9BB2DAB27B6883F81D227B681B691B0CDAB27B6883F86F
S32D0000E0381E227B681B691B0EDAB27B6883F81F227B68DB68DAB27B6883F820227B68DB689BB21B0A9BB2DAB2FC
S32D0000E0607B6883F821227B68DB681B0CDAB27B6883F822227B68DB681B0EDAB27B6883F823227B6858787B6862
S32D0000E08803F134017B685A69012301F01FF87B6800225A717B685B7800220021184601F0E1F80346002B14BF37
S32D0000E0B001230023DBB2002B01D00123FB73FB7B18461037BD4680BD80B582B000AF78600B467B807B68002B3D
S32D0000E0D808D07B681B78002B04D07B68DB887A889A4201D0092311E07B685B78184601F03BF9034603F0010342
S32D0000E100002B14BF01230023DBB2002B01D0032300E0002318460837BD4680BD80B586B000AF78607B681A68C6
S32D0000E1287B689B8819461046FFF7CAFF0346FB75FB7D002B40F0AC807B689B7903F02003002B00F0A5807B6867
S32D0000E1509B7903F04003002B1BD07B681B6858787B6803F128017B689A69012300F0B2FF0346002B14BF0123F5
S32D0000E1780023DBB2002B01D001238AE07B689B7923F04003DAB27B689A717B681A687B68DB6919461046FFF741
S32D0000E1A089FE0346FB75FB7D002B75D17B681B6A3B613B690B331A783B690B3342F02002D2B21A707B68DA6847
S32D0000E1C83B691C33D2B21A707B68DB689BB21B0A9AB23B691D33D2B21A707B68DB681A0C3B691E33D2B21A70F3
S32D0000E1F07B68DB681A0E3B691F33D2B21A707B681A693B691A33D2B21A707B681B699BB21B0A9AB23B691B3333
S32D0000E218D2B21A707B681B691A0C3B691433D2B21A707B681B691B0C9BB21B0A9AB23B691533D2B21A700023DB
S32D0000E240FB603B691633FA68D2B21A70FB689BB21B0A9AB23B691733D2B21A70FB681A0C3B691833D2B21A7055
S32D0000E268FB681A0E3B691933D2B21A707B689B7923F02003DAB27B689A717B681B6801221A717B681B68184680
S32D0000E290FFF774FE0346FB75FB7D18461837BD4680BD80B584B000AF78607868FFF736FF0346FB73FB7B002B87
S32D0000E2B802D17B6800221A60FB7B18461037BD4680BD000080B588B000AF7860396080233B610F23FB604FF0F3
S32D0000E2E0FF337B610223FB61FB69B3F5807F23D80123BB61BB69102B1AD8FB69BA6902FB03F33A6803FB02F2DC
S32D0000E3087B68D31ABB60BB68002B09DBBB687A699A4205D9BB687B61FB693B61BB69FB60BB690133BB61E1E750
S32D0000E330FB695B00FB61D7E71D4BDB6A1C4A23F00803D3621A4BDB6A23F47F2323F47F63BB613B695B081B02E4
S32D0000E3589AB2FB68013B1B01DBB21A43BB691343114A43F46023D3620F4B5B6A03F00803002B0CBF0123002388
S32D0000E380DBB2002B03D00A2001F01AF9F0E7084BDB6A074A43F00803D362054B1B6B044A43F48013136300BF60
S32D0000E3A82037BD4680BD00BF00100B4080B582B000AF786039607B6800221A60414B424ADA62404BDB6A03F079
S32D0000E3D08073002B14BF01230023DBB2002B00D0F3E73A4B0022C3F8C020384B4FF481325A60364B28229A6249
S32D0000E3F8344B4FF001125A643B689B6833491846FFF760FF2F4B5B6A03F00303002B14BF01230023DBB2002B5E
S32D0000E42000D0F3E72C4B40F243421A602A4B40F243425A60284B4FF488629A60264B40F24342DA60244B40F2F9
S32D0000E44843421A61224B40F243425A61214B03F580531B6B1F4A43F4003302F580521363184B4FF6FF721A6362
S32D0000E470164B1B4A5A63154BDB6A144A43F00063D362124BDB6A03F00063002B14BF01230023DBB2002B00D068
S32D0000E498F3E70C4B5B6A03F48033002B14BF01230023DBB2002B02D07B6801221A60054B1B6B044A43F080038D
S32D0000E4C01363002318460837BD4680BD00100B400080000160CC050000D0044000700440B3007F0080B400AFCE
S32D0000E4E8064B5A6A40F207331340002B14BF01230023DBB21846BD4680BC704700100B4080B485B000AF7860C1
S32D0000E510074B1B6B7A681340FB60FB68002B00D1F6E7FB6818461437BD4680BC704700BF00100B4080B584B0B4
S32D0000E53800AF78607B681B7803F03F03764A52F82330FB60FB68002B05D17B681B78002B01D00123DCE0714B59
S32D0000E5601B6B704A43F0800313636E4B5B6A03F00103002B14BF01230023DBB2002B00D0F3E7684A7B685B68AD
S32D0000E5889360FB6823F44003FB607B685B789B0503F44003FA681343FB607B685B78022B03D1FB6843F4001353
S32D0000E5B0FB607B685B78042B16D1FB6803F44033B3F5003F08D1FB6823F44033FB60FB6843F44033FB6007E0F2
S32D0000E5D8FB6823F44033FB60FB6843F40033FB604E4B5B684D4A9BB253607B68DB68002B2AD0FB6803F440339A
S32D0000E600B3F5403F03D0FB6843F40013FB607B681B7A002B03D0FB6843F01003FB607B68DB68012B03D9FB68DF
S32D0000E62843F02003FB607B68DB68B3F1FF3F0BD03A4B5A687B68DB681B04384913434B60FB6843F00203FB602C
S32D0000E650344B00221A60334AFB68D3603248FFF753FF0346012B14BF01230023DBB2002B09D02C4B1B6B2B4A1A
S32D0000E67843F4702343F001031363012348E0274B1B6B03F08003002B14BF01230023DBB2002B07D0214B1B6B7D
S32D0000E6A0204A43F001131363012335E01D4B1B6B03F48033002B14BF01230023DBB2002B08D0184B1B6B174A35
S32D0000E6C843F0011313634FF0FF3321E0FB6803F44033002B15D0114B1A697B681A61FB6803F44033B3F5803FA7
S32D0000E6F00BD10C4B5A697B685A610A4B9A697B689A61084BDA697B68DA61064B1B6B054A43F001031363002388
S32D0000E71818461037BD4680BDD894010000100B4001000E0080B592B000AF7860396000237B643B68BB63994BD9
S32D0000E7407B637B6B002B02D140F601235FE3964B3B633B6B002B02D140F60B2357E33B6B1B68FB62FB6A002B76
S32D0000E76802D140F60B234EE37B6841F20932934200F23F837B68B3F5985F08D87B68032B00F01A837B68092B2A
S32D0000E79000F0098331E37B68A3F59853013B082B00F22B8301A252F823F000BFD1E70000BDEA000019ED000032
S32D0000E7B8D3EA000011EB000037EC00007FEC0000C1EB0000DBEB00007649786BFFF7EEFD78647B6C002B40F0D9
S32D0000E7E01083002387F84330002387F82B30002387F82A30002387F82930002387F84230002387F8283000233E
S32D0000E8083B7200237B720023FB6000233B7400237B6107F108031846FFF788FE0346002B14BF01230023DBB2DE
S32D0000E830002B02D001237B64E8E240F24C4000F0BFFE08233B7200237B724FF4D573FB6000233B7400237B61E6
S32D0000E85807F108031846FFF769FEF863FB6B002B09D1BA69FB689A4202D001237B64C9E2012387F842300123F3
S32D0000E88087F8283097F82830002B00F0A58037233B7200237B720023FB6000233B7400237B6107F108031846A5
S32D0000E8A8FFF744FEF863FB6B002B02D001237B64A8E269233B7200237B720023FB6000233B7400237B6107F12F
S32D0000E8D008031846FFF72EFE0346002B14BF01230023DBB2002B02D001237B648EE2BB6903F44013002B6FD02C
S32D0000E8F80023FB630A2000F05FFEFB6B0133FB6337233B7200237B720023FB6000233B7400237B6107F1080399
S32D0000E9201846FFF707FE0346002B14BF01230023DBB2002B02D001237B6428E069233B7200237B7297F8423003
S32D0000E948002B02D0184BFB6002E04FF44013FB6000233B7400237B6107F108031846FFF7E5FD0346002B14BFC2
S32D0000E97001230023DBB2002B02D001237B6406E0BB69002B03DBFB6B632B00D8B6E77B6C002B40F03882FB6BC7
S32D0000E998632B0BD9002387F8423019E0A0180020A41A0020CC94010000003040012387F8433097F84230002B09
S32D0000E9C00AD0002387F84230BB6903F08043002B02D0012387F8423097F82A30002B02D07B6B07221A6097F851
S32D0000E9E82930002B02D07B6B08221A6097F82B30002B02D07B6B04221A6097F84330002B09D07B6B02221A602A
S32D0000EA1097F84230002B02D07B6B03221A6097F82B30002B0DD097F84330002B09D07B6B05221A6097F84230D5
S32D0000EA38002B02D07B6B06221A60924B00221A60904B00225A608F4B00229A608D4B0022DA608C4B00221A615D
S32D0000EA608A4B00225A61FB6A9A68FB6A5B6819461046FFF72BFC854B40F243421A60834B40F243425A60814B69
S32D0000EA884FF488629A607F4B40F24342DA607D4B40F243421A617B4B40F243425A617A4B03F580531B6B784A74
S32D0000EAB043F4003302F580521363A7E1B86BFFF739FDF863FB6B002B00F09F8102237B649BE1BB6B002B02D118
S32D0000EAD80C237B6496E16D4BDB6A1B0A5B0003F4FF73FB63694BDB6A1B0903F00F035A1CFB6B02FB03F3FB63F8
S32D0000EB00FB6A9A68FB6BB2FBF3F2BB6B1A607DE1BB6B002B02D10C237B6477E1BB6B1B68002B02D10C237B644B
S32D0000EB2870E1FFF7DBFC0346002B0CBF01230023DBB2002B3CD0534B00221A60514B00225A60504B00229A60EE
S32D0000EB504E4B0022DA604D4B00221A614B4B00225A61FB6A9A68BB6B1B6819461046FFF7ADFB464B40F243424F
S32D0000EB781A60444B40F243425A60424B4FF488629A60404B40F24342DA603E4B40F243421A613C4B40F24342CC
S32D0000EBA05A613B4B03F580531B6B394A43F4003302F58052136329E140F60A237B6425E1BB6B002B02D10C23E4
S32D0000EBC87B641FE1314B5B68C3F30C02BB6B1A6018E1BB6B002B02D10C237B6412E1FFF77DFC0346002B0CBFD1
S32D0000EBF001230023DBB2002B19D0BB6B1B68B3F5805F02D30C237B6400E1224B5B68214A23F4FF5323F01F03E2
S32D0000EC1853601E4B5A68BB6B1B68C3F30C031B4913434B60EEE040F60A237B64EAE0BB6B002B02D10C237B6411
S32D0000EC40E4E0144B9B6A5B0803F00303FB63FB6B002B03D1BB6B00221A60D7E0FB6B012B03D1BB6B01221A60BD
S32D0000EC68D0E0FB6B102B03D1BB6B02221A60C9E005237B64C6E0BB6B002B09D10C237B64C0E000BF00D0044093
S32D0000EC900070044000100B40FFF724FC0346002B0CBF01230023DBB2002B31D0BB6B1B68002B0AD1584B9B6A9B
S32D0000ECB8574A23F006039362554B554A9B6A9362A0E0BB6B1B68012B0CD1514B9B6A504A23F0060393624E4B2C
S32D0000ECE09B6A4D4A43F0020393628FE0BB6B1B68022B0AD1484B9B6A474A23F006039362454B454A9B6A9362CA
S32D0000ED0880E005237B647DE040F60A237B6479E0BB6B002B02D10C237B6473E03C4BDB6A3B4A43F00063D362DD
S32D0000ED30394BDB6A03F00063002B14BF01230023DBB2002B00D0F3E7334B1B6B03F08003002B14BF0123002330
S32D0000ED58DBB2002B08D02E4B1B6B2D4A43F0800313637B6B00221A60294B5B6A03F48033002B14BF01230023B1
S32D0000ED80DBB2002B07D07B6B1B68002B06D17B6B01221A6002E07B6B00221A607B6B1A68BB6B1A6032E0BB6B44
S32D0000EDA81C221A60BB6B043304221A60BB6B08334FF41E721A6025E00220FFF7A1FB144B1B6B03F4E003002B37
S32D0000EDD014BF01230023DBB2002B07D00E4B1B6B0D4A43F4E003136304237B640A4B1B6B094A43F03203136394
S32D0000EDF808E040F609237B6404E000BF02E000BF00E000BF7B6C18464837BD4680BD00BF00100B4080B489B056
S32D0000EE2000AF786039607B687B61364B3B613B69002B01D100235FE03B691B68022B0BD03B691B68032B07D06A
S32D0000EE483B691B68072B03D03B691B68082B0BD12B4B5B6A03F00403002B14BF01230023DBB2002B00D0F3E75E
S32D0000EE703B68FB61FB69002B3DD0FB69B3F5007F28BF4FF40073FB60FB6803339B08BB61BB69002B2AD01C4B4E
S32D0000EE981B6B03F4E003002B14BF01230023DBB2002B09D0164B1B6B154A43F4E00343F02003136300231BE0CC
S32D0000EEC0114B5B6A03F40063002B0CBF01230023DBB2002B00D0F3E70B497B691A1D7A610A6A1A60BB69013B72
S32D0000EEE8BB61D1E7FA69FB68D31AFB61BEE7012318462437BD4680BC704700BFA018002000100B4080B58EB03C
S32D0000EF1000AFB9607A601A460346FB731346BB73414B7B63FB7B002B02D1BB7B002B01D1042375E03D4B1B78EB
S32D0000EF38DBB203F00103002B14BF01230023DBB2002B01D0032367E0BB68002B01D1002362E07B6B1B7B002BC0
S32D0000EF6002D17B685B027B60BB7B012B28D111233B7500237B757B68BB6101233B77BB7B3B6207F1140319462D
S32D0000EF8841F20230FFF7CEFB0346002B0CBF01230023DBB2002B38D04FF40071B868FFF739FF0346002B14BFA8
S32D0000EFB001230023DBB2002B2BD00023BB7328E012233B7500237B757B68BB6101233B77BB7B3B6207F1140331
S32D0000EFD8194641F20230FFF7A5FB0346002B0CBF01230023DBB2002B0FD0BB7B5B021946B868FFF70FFF034635
S32D0000F000002B14BF01230023DBB2002B01D00023BB73BB7B002B01D0012300E0002300BF18463837BD4680BD9E
S32D0000F0288C1800200000002080B487B000AF786039607B68FB603B687B617B69002B3DD07B69B3F5007F28BF80
S32D0000F0504FF400733B617A693B69D31A7B613B6903339B083B613B69002BEAD0184B1B6B03F4E003002B14BF8D
S32D0000F07801230023DBB2002B0AD0134B1B6B124A43F4E00343F0100313634FF0FF3316E00D4B5B6A03F480631D
S32D0000F0A0002B0CBF01230023DBB2002B00D0F3E7FB681A1DFA60064A1B6813623B69013B3B61D0E701231846B2
S32D0000F0C81C37BD4680BC704700100B4080B58EB000AFB9607A601A460346FB731346BB735D4B7B63FB7B002B9C
S32D0000F0F002D1BB7B002B01D10423ADE0594B1B78DBB203F00103002B14BF01230023DBB2002B01D003239FE00A
S32D0000F118524B1B78DBB203F00403002B14BF01230023DBB2002B01D0022391E0BB68002B01D100238CE07B6B19
S32D0000F1401B7B002B02D17B685B027B60BB7B012B28D118233B7500237B757B68BB6100233B77BB7B3B6207F1FA
S32D0000F1681403194641F20230FFF7DCFA0346002B0CBF01230023DBB2002B38D04FF40071B868FFF751FF034629
S32D0000F190002B14BF01230023DBB2002B2BD00023BB7328E019233B7500237B757B68BB6100233B77BB7B3B625A
S32D0000F1B807F11403194641F20230FFF7B3FA0346002B0CBF01230023DBB2002B0FD0BB7B5B021946B868FFF78E
S32D0000F1E027FF0346002B14BF01230023DBB2002B01D00023BB730D233B7500237B757B6B1B69BB6100233B7725
S32D0000F20800233B6207F11403194641F20230FFF789FA0346002B14BF01230023DBB2002B01D0012314E07A6AB9
S32D0000F2300D4B1340002B01D001230DE07B6A03F4F853B3F5106F00D0D5E7BB7B002B01D0012300E0002300BF06
S32D0000F25818463837BD4680BD8C180020000000200880D9FF80B58CB000AF03463A60FB710B46BB713A4BBB62A9
S32D0000F280FB79002B01D0042369E0012387F82F30364B1B78DBB203F00103002B14BF01230023DBB2002B01D018
S32D0000F2A8032358E0BB79032B50D801A252F823F0C9F20000D1F20000E1F20000F1F20000002387F82F3044E0F7
S32D0000F2D0BB6A9A683B681A60002387F82F303CE03B684FF400721A80002387F82F3034E009233B7200237B72BF
S32D0000F2F8BB6A1B69FB6000233B7400237B6107F10803194641F20230FFF70CFA0346002B14BF01230023DBB235
S32D0000F320002B01D001231AE07B6A03F44003002B0CD13B6A9B0C03F07F035A1C7B6A1B0A03F00303013B9A402E
S32D0000F3483B681A60002387F82F3002E0042387F82F3097F82F3018463037BD4680BD00BF8C18002000000020FC
S32D0000F37080B483B000AF0346FB71FB79002B01D0012302E0034B1B78DBB218460C37BD4680BC70470000002009
S32D0000F39880B483B000AF7860164B03F580539B6B144A43F0010302F580529363124A7B689360114B05225A6064
S32D0000F3C00F4B1B680E4A43F0010313600C4B1B6803F08003002B0CBF01230023DBB2002B00D0F3E7064B1B687D
S32D0000F3E8054A23F00103136000BF0C37BD4680BC704700BF007004400000044080B582B000AF786039607B6805
S32D0000F410012B07D13B684FF6FF72934202D1034800F00EF800BF0837BD4680BDAC1A002080B500AF4FF6FF71CB
S32D0000F4380120FFF7E3FF80BD80B483B000AF78607B6800221A707B6818460C37BD4680BC7047000080B582B012
S32D0000F46000AF78607B681B7883F00103DBB2002B21D0134B03F580531A464FF400639362104B4FF440721A6271
S32D0000F4880E4B4FF440725A620D4B1B68DA0F13445B104FF4614219460A48FEF7FDFB642000F08AF87B68012246
S32D0000F4B01A70012300E0002318460837BD4680BD0070044000D00440B01A002000B00E4080B582B000AF786002
S32D0000F4D8084611461A460346FB700B46BB7013467B707F210E48FEF7AAFC08210C48FEF7A6FCFB7819460A48C4
S32D0000F500FEF7A1FCBB7819460748FEF79CFC7B7819460548FEF797FCFF210348FEF793FC00BF0837BD4680BD89
S32D0000F52800B00E4080B487B000AFF860B9607A60FB681F4AA2FB03239B09BA6813447B61FB681B4AA2FB031250
S32D0000F55092094FF47A7101FB02F29B1AFB60FB68DB03154AA2FB03239B097A6813443B613B69DB0B7A69134424
S32D0000F5787B613B69C3F30E033B610E4B1B687A699A4209D80B4B1B687A699A4206D1094B5B683A699A4201D927
S32D0000F5A0012300E00023002B00D0EAE700BF1C37BD4680BC704700BFD34D621000D0034080B584B000AF7860EE
S32D0000F5C8074B1B68FB60064B5B68BB607B68BA68F9681846FFF7A6FF00BF1037BD4680BD00D0034080B584B095
S32D0000F5F000AFC7E900010E4B1B68FB600C4B5B68BB604FF000020B4BD7E9000102F080FE02460B46104619460B
S32D0000F61803F03CF90346BA68F9681846FFF782FF00BF1037BD4680BD00D0034000408F4080B483B000AF0B4B27
S32D0000F6401B684FF47A7202FB03F37B60074B5B684FF47A7202FB03F3DB0B7A6813447B607B6818460C37BD4664
S32D0000F66880BC704700D0034080B582B000AF78600B46FB70FB781946786800F005F87B6818460837BD4680BD65
S32D0000F69080B483B000AF78600B46FB707B68FA781A707B681B781A46534B9B5C042B00F29E8001A252F823F019
S32D0000F6B8CDF6000007F7000041F700007BF70000B5F700004B4A7B681B7819464A4B53F8213040F2031142F8F2
S32D0000F6E02310484B5A697B681B781946444B53F8213003F01F03012101FA03F3DB43414913404B6173E0404AC7
S32D0000F7087B681B7819463C4B53F8213040F2031142F823103B4B5A697B681B781946364B53F8213003F01F03D8
S32D0000F730012101FA03F3DB43344913404B6156E0334A7B681B7819462D4B53F8213040F2031142F823102F4B35
S32D0000F7585A697B681B781946274B53F8213003F01F03012101FA03F3DB43284913404B6139E0274A7B681B7827
S32D0000F78019461F4B53F8213040F2031142F82310224B5A697B681B781946194B53F8213003F01F03012101FA0C
S32D0000F7A803F3DB431B4913404B611CE01A4A7B681B781946104B53F8213040F2031142F82310164B5A697B68D6
S32D0000F7D01B7819460A4B53F8213003F01F03012101FA03F3DB430F4913404B6100BF00BF0C37BD4680BC7047D4
S32D0000F7F8D8950100009004401C96010000F00F4000A0044040F00F4000B0044080F00F4000C00440C0F00F4096
S32D0000F82000D0044000F10F40B0B48BB000AF224B3C1D1D460FCD0FC495E80F0084E80F0000237B627B6A072B22
S32D0000F84830DC1C4BD3F8A0207B6A9B0028333B4453F8243C012101FA03F31340002B14BF01230023DBB2002B2C
S32D0000F87018D0134A7B6A52F823305A1C10497B6A41F823200D4BD3F8A0207B6A9B0028333B4453F8243C012169
S32D0000F89801FA03F307491340C1F8A0307B6A01337B62CBE700BF2C37BD46B0BC704700BF2097010000A00440DA
S32D0000F8C0DC1A0020B0B489B000AF224B3C1D1D460FCD0FC495E8030084E803000023FB61FB69052B30DC1C4B6B
S32D0000F8E8D3F8A020FB699B0020333B4453F81C3C012101FA03F31340002B14BF01230023DBB2002B18D0FB6944
S32D0000F9100833124A52F823200132104941F823200D4BD3F8A020FB699B0020333B4453F81C3C012101FA03F333
S32D0000F93807491340C1F8A030FB690133FB61CBE700BF2437BD46B0BC704700BF4097010000B00440DC1A0020EE
S32D0000F960B0B48DB000AF234B3C461D460FCD0FC40FCD0FC495E8070084E807000023FB62FB6A0A2B30DC1C4BF4
S32D0000F988D3F8A020FB6A9B0030333B4453F8303C012101FA03F31340002B14BF01230023DBB2002B18D0FB6A7D
S32D0000F9B00E33124A52F823200132104941F823200D4BD3F8A020FB6A9B0030333B4453F8303C012101FA03F368
S32D0000F9D807491340C1F8A030FB6A0133FB62CBE700BF3437BD46B0BC704700BF5897010000900440DC1A002044
S32D0000FA00B0B487B000AF214B3C461D460FCD0FC42B68236000237B617B69042B30DC1C4BD3F8A0207B699B00E9
S32D0000FA2818333B4453F8183C012101FA03F31340002B14BF01230023DBB2002B18D07B691933124A52F82320E3
S32D0000FA500132104941F823200D4BD3F8A0207B699B0018333B4453F8183C012101FA03F307491340C1F8A03076
S32D0000FA787B6901337B61CBE700BF1C37BD46B0BC704700BF8497010000D00440DC1A002080B483B000AF78608F
S32D0000FAA00B46FB707B68FA781A707B6818460C37BD4680BC7047000080B586B000AF78607B681B781A463E4BD2
S32D0000FAC853F822303B617B681B781A463B4B9B5CFB733B69DBB203F01F03DAB2384B1A723B69DBB203F01F03EF
S32D0000FAF0DAB2354B5A72354B1022C3F88820FB7B002B13D13049324800F05AFA304B1B6803F08003802B14BF4D
S32D0000FB1801230023DBB2002B00D0F3E72A4B1B697B6112E02649294800F046FA274B1B6803F08003802B14BF56
S32D0000FB4001230023DBB2002B00D0F3E7214B1B697B611E4BD3F888311C4A43F01003C2F888311A4B9B68194A4B
S32D0000FB6843F0100393607B699BB2184602F052FB0DA3D3E9002302F0C7FB02460B46104619460BA3D3E900234A
S32D0000FB9002F0E8FC02460B461046194602F09AFE0346BB60BB6818461837BD4680BD00BFA4703D0AD7A30A4047
S32D0000FBB800000000E0FFEF409C960100F8950100BC1A002000E100E000B0034000B00B4080B586B000AF7860B9
S32D0000FBE07B681B781A46234B53F822303B617B681B781A46204B9B5CFB733B69DBB203F01F03DAB21D4B1A720E
S32D0000FC083B69DBB203F01F03DAB21A4B5A72FB7B002B13D11749184800F0CEF9164B1B6803F08003802B14BFF7
S32D0000FC3001230023DBB2002B00D0F3E7104B1B697B6112E00D490F4800F0BAF90D4B1B6803F08003802B14BF31
S32D0000FC5801230023DBB2002B00D0F3E7074B1B697B617B6918461837BD4680BD9C960100F8950100CC1A00208B
S32D0000FC8000B0034000B00B4098B500AF204B5C221A701F4B10225A701D4B41F234225A801B4B45F278629A8037
S32D0000FCA8194B10229A71184B0722DA71164B4FF4C022DA60144B1F221A72134B1F225A721149124800F078F94A
S32D0000FCD00F49114800F074F90F4800F0D2F80D4800F0CFF80A490C4800F06AF90849094800F066F9094A064B4C
S32D0000FCF814460FCB84E80F00064B5C221A70054B0422DA7100BF98BDBC1A002000B0034000B00B40CC1A002017
S32D0000FD2080B500AF064B1B680133054A136000F03DF8044B0122C3F80C2100BF80BD00BF601B0020007003407F
S32D0000FD4880B500AF0C4B01221A600C4800F01AF8094B0322C3F80821094BD3F88831084A43F01003C2F888311F
S32D0000FD70054B9B68044A43F01003936000BF80BD00700340A086010000E100E080B483B000AF7860044A7B68D5
S32D0000FD98C2F8003100BF0C37BD4680BC704700BF0070034080B584B000AF174B1B68FB60FB68002B24D0FB68AB
S32D0000FDC05B78FB71FB689B68184600F023F80346BB71BB79002B13D0FB685B68012B0FDDFB689B681B69BB600D
S32D0000FDE8BB68002B08D0BB685B685A1CBB685A60BB681B69BB60F3E7FB68DB68FB60D7E700BF1037BD4680BDED
S32D0000FE105C1B002080B584B000AF78607868FFF7DBFEF8607B689B695B78FB72FB7A002B0FD17B68DB68FA6807
S32D0000FE389A420ADD7B689B6901225A707B685B685A1C7B685A60012313E0FB7A012B0FD17B689B68FA689A4290
S32D0000FE600ADA7B689B6900225A707B685B685A1C7B685A60012300E0002318461037BD4680BD80B485B000AFE0
S32D0000FE8878607B681B6A23F040027B681A627B685B6A23F00B027B685A627B685B6A43F007027B685A627B688B
S32D0000FEB05B6A43F080027B685A627B681B6803F08003002B0CBF01230023DBB2002B00D0F3E77B685B6A03F0F5
S32D0000FED84003402B0CBF01230023DBB2002B01D0012364E00023FB817B68DB6CFB817B689B6C9AB2FB891344F5
S32D0000FF00FB817B685B6C9AB2FB891344FB817B681B6C9AB2FB891344FB817B68DB6B9AB2FB891344FB817B684E
S32D0000FF289B6B9AB2FB891344FB81FB895B08FB81FB896FEA43436FEA5343FB81FA897B68DA620023FB817B68AD
S32D0000FF50DB6EFB817B689B6E9AB2FB891344FB817B685B6E9AB2FB891344FB817B681B6E9AB2FB891344FB81D1
S32D0000FF787B68DB6D9AB2FB891344FB817B689B6D9AB2FB891344FB81FB895B08FB81FB896FEA43436FEA53434A
S32D0000FFA0FB81FA897B681A637B685B6A23F080027B685A62002318461437BD4680BC704780B483B000AF786048
S32D0000FFC839603B681B781A467B689A603B685B781A467B68DA603B685B881A467B689A613B689B881A467B683F
S32D0000FFF0DA613B689B791A467B681A623B68DB791A467B685A623B68DA687B681A653B681B7A1A467B681A6000
S32D000100183B685B7A1A467B685A6000BF0C37BD4680BC704780B483B000AF78607B6818460C37BD4680BC7047E4
S32D0001004080B582B000AF786039607B68012B07D13B684FF6FF72934202D10348FFF7E6FF00BF0837BD4680BDBE
S32D00010068641B002080B500AF4FF6FF710120FFF7E3FF80BD80B582B000AF7860B84B4FF48072DA60B74B4FF456
S32D0001009080729A64B54B4FF480721A64B34B4FF480725A64B14B4FF48072DA60B04B5B69AF4A43F00803536198
S32D000100B8AE4B5B69AD4A43F480235361AB4B5B69AA4A43F480335361A84B5B69A74A43F400335361A54B1B6852
S32D000100E0A44A43F008031360A24B5B69A14A43F0080353619E4B1B689D4A43F0080313609A4B4FF480725A62EA
S32D00010108984B4FF480721A62954B4FF480721A61934B4FF480725A61914B4FF480729A618F4B4FF48072DA6180
S32D000101308D4B4FF480721A638B4B4FF480725A63894B4FF480729A63874B4FF48072DA63854B4FF480721A6481
S32D00010158834B4FF480725A64814B4FF480729A647F4B4FF48072DA64814B4FF480721A607F4B4FF480729A6007
S32D000101807D4B4FF48072DA607B4B4FF480721A61784B5B69774A43F440735361744B5B69734A43F47F2343F071
S32D000101A8F0035361734B5B69724A43F01D035361E221786800F0DEFD1D21786800F080FE0221786800F07CFE95
S32D000101D00421786800F078FEE021786800F0CEFD0121786800F070FE6420FFF7E9F9E021786800F0C3FD032188
S32D000101F8786800F065FE0121786800F0BBFD0120FFF7DAF9E621786800F0B4FD0121786800F056FEA0217868A2
S32D0001022000F052FEFF21786800F04EFEB021786800F0A4FD1C21786800F046FE0F21786800F042FE012178685E
S32D0001024800F03EFE3F21786800F03AFE0021786800F036FEEF21786800F032FE0021786800F02EFEB4217868EC
S32D0001027000F084FD0121786800F026FE9921786800F022FE0021786800F01EFE4521786800F01AFE02217868D0
S32D0001029800F016FE0021786800F012FE0021786800F00EFE0021786800F00AFEB621786800F060FD0121786836
S32D000102C000F002FE0921786800F0FEFD0021786800F0FAFD0E21786800F0F6FD0221786800F0F2FD002178686D
S32D000102E800F0EEFD0021786800F0EAFDBA21786800F040FD0F21786800F0E2FD6420FFF75BF93A21786800F074
S32D0001031035FD6021786800F0D7FD2A21786800F02DFD0021786800F0CFFD0021786800F0CBFD0121786800F0BA
S32D00010338C7FD3F21786800F0C3FD2B21786800F019FD0021786800F0BBFD0021786800F0B7FD0021786800F071
S32D00010360B3FDEF2178680BE000B0044000A0044080F00F4040F00F4000C00440C0F00F4000F0A2FD3621786804
S32D0001038800F0F8FC0021786800F09AFDF021786800F0F0FC0421786800F092FDB821786800F0E8FC0F217868EC
S32D000103B000F08AFD0121786800F086FD314B1B68304A43F0080313606420FFF7F9F83621786800F0D3FC002186
S32D000103D8786800F075FDF021786800F0CBFC0421786800F06DFD0121786800F0BCF91E226F21786800F082F8EC
S32D00010400AF225621786800F0DBF80021786800F0FFF9012301221C49786800F020FA2921786800F0ABFC64201E
S32D00010428FFF7CAF8BE21786800F0A4FC0E21786800F046FDF021786800F042FD0121786800F03EFD002178680E
S32D0001045000F03AFD0021786800F036FD0F21786800F032FD786800F01DFA0121786800F0CFF90021786800F071
S32D00010478A4F900BF0837BD4680BD00BF40F00F409897010080B582B000AF78607B680022DA617B6801221A625C
S32D000104A07B680E225A607B681A229A607B6800225A617B6800229A617B684FF4A072DA607B68F0221A617B68C2
S32D000104C800221A70786801F023F97B6818460837BD4680BD80B582B000AF7860064B1B78002B05D1044B012267
S32D000104F01A707868FFF7C2FD00BF0837BD4680BDAC1B002080B58AB002AFF860B9607A607E23009362237A6893
S32D00010518B968F86800F05CFE40F24E733B610023FB61FA693B699A4240DA0023BB61214AFB6913441B781A4686
S32D00010540BB69934232DAFB6901331C4AD35C002B06D1FF23FB75FF23BB75FF237B7512E0FB690133154AD35C4A
S32D00010568012B06D1D423FB750023BB7526237B7505E0B523FB75BA23BB75B0237B757B7DBA7DF97DF86800F07C
S32D00010590C9F80246FB68DA61F86801F0BDF8F86800F0F6FFBB690133BB61C4E7FB690233FB61BAE700BF20377F
S32D000105B8BD4680BD0400002080B58AB002AFF860B9607A602723009395237A68B968F86800F0FEFD40F2E63317
S32D000105E03B610023FB61FA693B699A4240DA0023BB61214AFB6913441B781A46BB69934232DAFB6901331C4A79
S32D00010608D35C002B06D1FF23FB75FF23BB75FF237B7512E0FB690133154AD35C012B06D10023FB750023BB759B
S32D0001063000237B7505E0D423FB750023BB7526237B757B7DBA7DF97DF86800F06BF80246FB68DA61F86801F021
S32D000106585FF8F86800F098FFBB690133BB61C4E7FB690233FB61BAE700BF2037BD4680BD5407002080B485B046
S32D0001068000AF78600B46FB70FB78062B29D801A252F823F0B9060100B1060100BF060100C7060100CF06010081
S32D000106A8D5060100DD0601006FF07F43FB6014E00023FB6011E04FF47F03FB600DE04FF47F43FB6009E0FF230C
S32D000106D0FB6006E04FF41903FB6002E0044BFB6000BFFB6818461437BD4680BC704700BF9999990080B584B0C0
S32D000106F800AF786039603B681B0CFB733B681B0ABB733B687B737B7BBA7BF97B786800F005F80346184610379A
S32D00010720BD4680BD80B487B000AF7860084611461A460346FB700B46BB7013467B70FB789B08DBB27B61BB784D
S32D000107489B08DBB23B617B789B08DBB2FB607B691A033B699B011A43FB68134318461C37BD4680BC704780B505
S32D0001077082B000AF78600B46FB70FB7819467868FFF77CFF03461946786800F004F800BF0837BD4680BD80B5DB
S32D0001079882B000AF7860396039687868FFF7A6FF02467B681A62786800F0B2FF786800F01FFC00BF0837BD46B0
S32D000107C080BD80B582B000AF78600B46FB70FB7819467868FFF752FF03461946786800F004F800BF0837BD46B5
S32D000107E880BD80B582B000AF7860396039687868FFF77CFF02467B681A62786800F088FF00BF0837BD4680BDF0
S32D0001081080B582B000AF78600B46FB70FB7819467868FFF72BFF03461946786800F004F800BF0837BD4680BD8B
S32D0001083880B582B000AF7860396039687868FFF755FF02467B68DA61786800F061FF00BF0837BD4680BD80B536
S32D0001086086B000AFF860B9607A603B6000237B617B69BA6813441B78002B0FD07B69BA6813441B783A68796832
S32D00010888F86800F03FFD7B680C337B607B6901337B61E9E700BF1837BD4680BD80B582B000AF7860FDF7A8F923
S32D000108B067210120FDF713F900210220FDF70FF9A0210320FDF70BF950210420FDF707F920210520FDF703F976
S32D000108D820210620FDF7FFF877210720FDF7FBF800210820FDF7F7F800210920FDF7F3F800210A20FDF7EFF87E
S32D0001090004210B20FDF7EBF87B684FF0FF32DA637B684FF0FF321A6400BF0837BD4680BD80B586B000AFF86090
S32D00010928B9607A600020FDF7F8F80346FB75FB7D03F00203002B00F0CE80FDF70BF9E020FDF7BCF80220FEF760
S32D0001095037FEFDF711F90120FEF732FEFDF7FEF8A520FDF7AFF80120FEF72AFEFDF7D1F803469BB21B02BB82CA
S32D00010978FDF7CBF803469AB2BB8A1343BB82FDF7C4F803469BB21B027B82FDF7BEF803469AB27B8A13437B8235
S32D000109A0BB8A1B09BB827B8A1B097B82FDF7E4F8FB68DB6BB3F1FF3F34D1FB681B6CB3F1FF3F2FD1BA8AFB6889
S32D000109C8DA637A8AFB681A647B8AC3F57F630F337B82BB8A184601F02DFC49A3D3E9002301F092FC02460B4660
S32D000109F01046194601F06EFF0246BB681A607B8A184601F01BFC42A3D3E9002301F080FC02460B4610461946F6
S32D00010A1801F05CFF02467B681A605AE0FB68DA6BBB8AD31A1946F86800F0D0F80346632B0CDCFB681A6C7B8A86
S32D00010A40D31A1946F86800F0C5F80346632B01DC012300E00023002B2FD0BA8AFB68DA637A8AFB681A647B8A5B
S32D00010A68C3F57F630F337B82BB8A184601F0E2FB23A3D3E9002301F047FC02460B461046194601F023FF024693
S32D00010A90BB681A607B8A184601F0D0FB1CA3D3E9002301F035FC02460B461046194601F011FF02467B681A60C7
S32D00010AB80FE0BB68164A1A607B68154A1A60FB684FF0FF32DA63FB684FF0FF321A64002310E001230EE0BB68BE
S32D00010AE00D4A1A607B680C4A1A60FB684FF0FF32DA63FB684FF0FF321A64002318461837BD4680BDAFF30080D0
S32D00010B08144001144001B43F1EE0011EE001AE3F000080BF80B588B000AFF860B9607A6007F1140207F118036F
S32D00010B3019462648FFF7F4FE0346FB77BB694FF00001184602F0E0F90346002B10D0BB69184601F085FB4FF013
S32D00010B5800021D4B01F022FA02460B461046194601F06CFE034604E0BB69184602F0D2F90346BA6813607B6920
S32D00010B804FF00001184602F0BFF90346002B10D07B69184601F064FB4FF000020C4B01F001FA02460B461046A5
S32D00010BA8194601F04BFE034604E0BB69184602F0B1F903467A681360FB7F18462037BD4680BD00BF681B0020CB
S32D00010BD00000E03F80B483B000AF786039603B68002B02DA3B685B423B603B6818460C37BD4680BC704780B55C
S32D00010BF884B000AF786039600023FB60786800F0BAFAFB683A6813441B78002B12D07B6859697B689869FB6890
S32D00010C203A6813441B780246786800F054FB786800F0B9FAFB680133FB60E6E700BF1037BD4680BD80B592B0B3
S32D00010C4800AF786039604FF00001386802F04EF90346002B1FD0386802F05CF903467B64786C01F03DFF034678
S32D00010C701946386801F082FE03461F49184601F087FF0346184602F049F903463B6407F10C003B6C7A6C1949A9
S32D00010C9803F0D2F922E03B6883F000433B60386802F038F903467B64786C01F019FF03461946386801F05EFE0C
S32D00010CC003460D49184601F063FF0346184602F025F903463B6407F10C003B6C7A6C084903F0AEF907F10C0393
S32D00010CE819467868FFF783FF00BF4837BD4680BD00007A44B4970100A897010080B584B000AFF860C7E900231B
S32D00010D10D7E9000101F0DEFD03461946F868FFF791FF00BF1037BD4680BD80B582B000AF78603960786800F0FC
S32D00010D3822FA39687868FFF781FF786800F006FA00BF0837BD4680BD80B584B000AFF860C7E90023F86800F0D8
S32D00010D600EFAD7E90023F868FFF7CCFFF86800F0F1F900BF1037BD4680BD000080B483B000AF78600B46FB702E
S32D00010D884D4B1B684C4A23F0080313604B4B1B684A4A23F480231360484B1B68474A43F480331360454B1B6809
S32D00010DB0444A23F440731360414B1B68404A23F4435323F0300313603E4B1A68FB785B0203F400733B4913432B
S32D00010DD80B603A4B1A68FB785B101B0203F48073364913430B60344B1A68FB789B101B0103F010033049134345
S32D00010E000B602F4B1A68FB78DB105B0103F020032B4913430B602A4B1A68FB781B119B0103F04003264913432A
S32D00010E280B60254B1A68FB785B11DB01DBB2224913430B60204B1A68FB789B111B0303F480531D4913430B60AF
S32D00010E501B4B1A6897F90330DB115BB25B0303F40053174913430B60164B1B68154A23F400331360134B1B6825
S32D00010E78124A43F4003313600F4B1B680E4A43F0080313600D4B1B680C4A43F440731360094B1B68084A43F43E
S32D00010EA0435343F030031360064B1B68054A43F48023136000BF0C37BD4680BC704700BF80F00F4040F00F404F
S32D00010EC880B483B000AF78600B46FB70464B1B68454A23F008031360444B1B68434A43F480331360414B1B6812
S32D00010EF0404A43F4802313603E4B1B683D4A23F4407313603A4B1B68394A23F4435323F030031360374B1A6837
S32D00010F18FB785B0203F40073344913430B60334B1A68FB785B101B0203F480732F4913430B602D4B1A68FB78A7
S32D00010F409B101B0103F01003294913430B60284B1A68FB78DB105B0103F02003244913430B60234B1A68FB782C
S32D00010F681B119B0103F040031F4913430B601E4B1A68FB785B11DB01DBB21B4913430B60194B1A68FB789B11D6
S32D00010F901B0303F48053164913430B60144B1A6897F90330DB115BB25B0303F40053104913430B600F4B1B68EE
S32D00010FB80E4A23F4003313600C4B1B680B4A43F400331360084B1B68074A43F008031360064B1B68054A23F4D7
S32D00010FE08023136000BF0C37BD4680BC704700BF80F00F4040F00F4080B586B000AF78607B6800225A617B6842
S32D0001100800229A617B681B6AFB60FB68FB72FB681B0ABB72FB681B0CDBB203F003037B722A217868FFF7A6FE92
S32D0001103000217868FFF748FF00217868FFF744FF01217868FFF740FF3F217868FFF73CFF2B217868FFF792FEBF
S32D0001105800217868FFF734FF00217868FFF730FF00217868FFF72CFFEF217868FFF728FF2C217868FFF77EFE4B
S32D00011080314B1B68304A23F4407313602F4B1B682E4A23F47F2323F0F00313602C4B1B682B4A23F01D031360CF
S32D000110A8274B1A687B681B6B254913430B60254B1A687B685B6B234913430B60224B1A687B689B6B204913432E
S32D000110D00B601E4B1B681D4A23F0080313601A4B1B68194A43F48023136000237B617B69EF2B19D800233B615D
S32D000110F83B69B3F5A07F0FD2114B1B68104A23F4003313600E4B1B680D4A43F4003313603B6901333B61EBE731
S32D000111207B6901337B61E2E7084B1B68074A43F008031360044B1B68034A23F48023136000BF1837BD4680BD71
S32D0001114840F00F4080F00F40C0F00F4080B483B000AF78607B689B69002B07DD7B685B695A1C7B685A617B68B9
S32D0001117000229A6100BF0C37BD4680BC704780B582B000AF78607B685A697B685B689A4205DB7B6800225A6185
S32D000111987868FFF72DFF00BF0837BD4680BD80B582B000AF78607B689B695A1C7B689A617B689A697B689B68F3
S32D000111C09A4205D17868FFF7C5FF7868FFF7D7FF00BF0837BD4680BD80B588B000AFF860B9607A603B60FB6865
S32D000111E81B78022B03D0FB681B78032B11D17B68FB61BA6AFB691344013BBB61FB68DA68BB68D31A3B613B68D5
S32D000112103A69D31A01337B610DE0BB68FB613A68FB691344013BBB617B687B61BA6A7B691344013B3B612A21AD
S32D00011238F868FFF79FFDFB691B0ADBB203F00F03DBB21946F868FFF73BFEFB69DBB21946F868FFF735FEBB6902
S32D000112601B0ADBB203F00F03DBB21946F868FFF72BFEBB69DBB21946F868FFF725FE2B21F868FFF77BFD7B69B6
S32D000112881B0ADBB203F00F03DBB21946F868FFF717FE7B69DBB21946F868FFF711FE3B691B0ADBB203F00F0399
S32D000112B0DBB21946F868FFF707FE3B69DBB21946F868FFF701FE2C21F868FFF757FD00BF2037BD4680BD80B561
S32D000112D884B000AFF860B9607A60FB707A6813465B0013449B00991CBA6813461B011344DA1CFB78F86800F06A
S32D0001130005F800BF1037BD4680BD000080B58EB002AFF860B9607A60FB70FB780A2B06D1F868FFF72CFFF86841
S32D00011328FFF714FFF2E0FB787D2B02D8FB781F2B01D82023FB70FB78203BFB70112300930C237A68B968F868F0
S32D00011350FFF742FFFA7813469B0013446F4AD35C3B75FA7813469B00134401336B4AD35C7B75FA7813469B00B7
S32D0001137813440233674AD35CBB75FA7813469B0013440333634AD35CFB75FA7813469B00134404335F4AD35C9F
S32D000113A03B760023BB62BB6A062B00F3A180F86800F050F9F86800F0B3F8002387F82F3000237B627B6A042B1A
S32D000113C835DC07F114027B6A13441B7803F00103002B14BF01230023FB76FB7E002B11D097F82F3083F0010371
S32D000113F0DBB2002B03D0F86800F0CAF802E0F86800F08EF8F86800F08BF80DE097F82F30002B03D0F86800F07D
S32D000114181DF902E0F86800F07FF8F86800F07CF8FB7E87F82F307B6A01337B62C6E797F82F30002B03D0F868DC
S32D0001144000F008F902E0F86800F06AF8F86800F067F8002387F82F3000233B623B6A042B42DC07F114023B6AE3
S32D0001146813441B7803F00103002B14BF01230023BB76BB7E002B11D097F82F3083F00103DBB2002B03D0F86869
S32D0001149000F07EF802E0F86800F042F8F86800F03FF80DE097F82F30002B03D0F86800F0D1F802E0F86800F0B0
S32D000114B833F8F86800F030F8BB7E87F82F3007F114023B6A13441B785B08D9B207F114023B6A13440A461A70DC
S32D000114E03B6A01333B62B9E7BB6A0133BB625AE7F86800F0AFF8002387F82F300123FB61FB69232B06DCF868A4
S32D0001150800F00AF8FB690133FB61F5E73037BD4680BD00BF3C0B002080B483B000AF7860174B1B68164A43F4BB
S32D0001153080331360154B1B68144A23F008031360114B1B68104A43F4802313600E4B1B680D4A23F4003313601E
S32D000115580B4B1B680A4A43F400331360094B1B68084A43F008031360054B1B68044A23F48023136000BF0C3730
S32D00011580BD4680BC704700BF40F00F4080F00F4080B483B000AF78602B4B1B682A4A43F480331360294B1B689A
S32D000115A8284A23F008031360254B1B68244A43F480231360224B1B68214A23F440731360204B1B681F4A23F45D
S32D000115D07F2323F0F00313601D4B1B681C4A23F01D031360184B1A687B685B6A164913430B60164B1A687B6867
S32D000115F89B6A144913430B60134B1A687B68DB6A114913430B600E4B1B680D4A23F4003313600B4B1B680A4A61
S32D0001162043F400331360094B1B68084A43F008031360054B1B68044A23F48023136000BF0C37BD4680BC70479E
S32D0001164840F00F4080F00F40C0F00F4080B483B000AF78602B4B1B682A4A43F480331360294B1B68284A23F002
S32D0001167008031360254B1B68244A43F480231360224B1B68214A23F440731360204B1B681F4A23F47F2323F064
S32D00011698F00313601D4B1B681C4A23F01D031360184B1A687B681B6B164913430B60164B1A687B685B6B14496F
S32D000116C013430B60134B1A687B689B6B114913430B600E4B1B680D4A23F4003313600B4B1B680A4A43F40033CF
S32D000116E81360094B1B68084A43F008031360054B1B68044A23F48023136000BF0C37BD4680BC704740F00F40C1
S32D0001171080F00F40C0F00F4080B485B000AF78607B681B6AFB60FB68FB72FB681B0ABB72FB681B0CDBB203F0AA
S32D0001173803037B727B6800225A627B6800229A627B680022DA627B6800221A637B6800225A637B6800229A6346
S32D000117607B681A6BFB7A5B0203F400731A437B681A637B681A6BFB7A5B101B0203F480731A437B681A637B680A
S32D000117885A6BFB7A9B101B0103F010031A437B685A637B685A6BFB7ADB105B0103F020031A437B685A637B68D4
S32D000117B05A6BFB7A1B119B0103F040031A437B685A637B685A6BFB7A5B11DB01DBB21A437B685A637B685A6B3E
S32D000117D8FB7A9B111B0303F480531A437B685A637B685A6B97F90B30DB115BB25B0303F400531A437B685A63CB
S32D000118007B685A6BBB7A9B0303F480431A437B685A637B685A6BBB7A5B10DB039BB21A437B685A637B685A6B6F
S32D00011828BB7A9B101B0403F480331A437B685A637B685A6BBB7ADB105B0403F400331A437B685A637B685A6BF5
S32D00011850BB7A1B119B0403F480231A437B685A637B685A6BBB7A5B11DB0403F400231A437B685A637B689A6BAB
S32D00011878BB7A9B1103F001031A437B689A637B689A6B97F90A30DB115BB29B0003F004031A437B689A637B68CC
S32D000118A09A6B7B7ADB0003F008031A437B689A637B689A6B7B7A5B101B0103F010031A437B689A637B68DB693B
S32D000118C8FB60FB68FB72FB681B0ABB72FB681B0CDBB203F003037B727B685A6AFB7A5B0203F400731A437B68F1
S32D000118F05A627B685A6AFB7A5B101B0203F480731A437B685A627B689A6AFB7A9B101B0103F010031A437B681A
S32D000119189A627B689A6AFB7ADB105B0103F020031A437B689A627B689A6AFB7A1B119B0103F040031A437B6815
S32D000119409A627B689A6AFB7A5B11DB01DBB21A437B689A627B689A6AFB7A9B111B0303F480531A437B689A62E3
S32D000119687B689A6A97F90B30DB115BB25B0303F400531A437B689A627B689A6ABB7A9B0303F480431A437B680D
S32D000119909A627B689A6ABB7A5B10DB039BB21A437B689A627B689A6ABB7A9B101B0403F480331A437B689A6272
S32D000119B87B689A6ABB7ADB105B0403F400331A437B689A627B689A6ABB7A1B119B0403F480231A437B689A6277
S32D000119E07B689A6ABB7A5B11DB0403F400231A437B689A627B68DA6ABB7A9B1103F001031A437B68DA627B68BD
S32D00011A08DA6A97F90A30DB115BB29B0003F004031A437B68DA627B68DA6A7B7ADB0003F008031A437B68DA6226
S32D00011A307B68DA6A7B7A5B101B0103F010031A437B68DA6200BF1437BD4680BC7047000080B582B000AF786074
S32D00011A5839607B68012B07D13B684FF6FF72934202D10348FEF70EFD00BF0837BD4680BD681B002080B500AFCE
S32D00011A804FF6FF710120FFF7E3FF80BD80B582B000AF7860164B03F580535B6B144A43F0400302F58052536319
S32D00011AA8124B4FF400725A62104B4FF400721A620F4B14225A700E4B1B7ADBB20C4A43F00103DBB213720A4BEC
S32D00011AD080229A7002212B20FBF78AFF3D212A20FBF786FF7B6818460837BD4680BD00BF0070044000C00440FC
S32D00011AF80060064080B582B000AF786039607B68012B07D13B684FF6FF72934202D10348FFF7B8FF00BF0837B4
S32D00011B20BD4680BDB01B002080B500AF4FF6FF710120FFF7E3FF80BD80B582B000AF78607B681846FDF7B8FFC2
S32D00011B4803460F49184601F01FF80346184600F083FB09A3D3E9002300F000FD02460B461046194600F0B2FEEC
S32D00011B70034618460837BD4680BD00BFAFF300800000000000A0694000404A4480B582B000AF78600B46FB707E
S32D00011B987B68FA7811461846FDF77AFF7B6818460837BD4680BD000080B582B000AF786039607B68012B08D178
S32D00011BC03B684FF6FF72934203D120210348FFF7DDFF00BF0837BD4680BD00BFB41B002080B500AF4FF6FF7111
S32D00011BE80120FFF7E1FF80BD80B483B000AF78607B6800221A707B6818460C37BD4680BC7047000080B483B03C
S32D00011C1000AF78603960044A3B68136000BF0C37BD4680BC704700BFB81B002080B582B000AF3248FCF7EEF80E
S32D00011C380346FB71304AFB791370304B01221A702F4B1B78022B33D0022B4FDC002B02D0012B14D04AE0FB79EF
S32D00011C60FF2B44D1284B01221A70284B00221A70264B1B785A1CD1B2244A11701946244AFB79535433E0214B84
S32D00011C881B785A1CD1B21F4A117019461E4AFB7953541C4B1B780D2B27D11C4B1B68194A12781146184898473E
S32D00011CB0154B02221A701CE0FB79FF2B10D1124B01221A70114B00221A70104B1B785A1CD1B20E4A117019464B
S32D00011CD80D4AFB79535409E00A4B00221A70084B00221A7002E000BF00E000BF00BF0837BD4680BD00A006401E
S32D00011D00CF1B0020CE1B0020CD1B0020CC1B0020BC1B0020B81B002080B582B000AF78607B681846FFF764FF20
S32D00011D287B6811491846FFF76DFF7B684FF0FF325A600E4B4FF000021A600D4B4FF000021A600C4B4FF00002C3
S32D00011D501A600B4B00221A600A4B00221A700A4B00221A707B6818460837BD4680BD00BF8D1D0100DC1B0020B5
S32D00011D78E01B0020E41B0020E81B0020EC1B0020ED1B002080B582B000AF78600B46FB701D4B1B78002B32D0BE
S32D00011DA07B6801331B781A067B6802331B781B041A437B6803331B781B0213437A680432127813431A46134B4E
S32D00011DC81A607B685A79124B1A707B6806331B78AA2B0CBF01230023DAB20E4B1A700E4B01221A700B4B1B78E1
S32D00011DF0002B08D00B4800F049F80B4B1B680A4A23F40053136000BF0837BD4680BD00BFD81B0020E81B002000
S32D00011E18EC1B0020ED1B0020EE1B0020F01B0020C0F00F4080B582B000AF786039607B68012B07D13B684FF6A3
S32D00011E40FF72934202D10348FFF766FF00BF0837BD4680BDD01B002080B500AF4FF6FF710120FFF7E3FF80BD9C
S32D00011E6880B483B000AF7860054B00221A60044B00225A607B6818460C37BD4680BC7047F01B002080B584B038
S32D00011E9000AF7860154B1B68002B21D00023FB60124B5B68FA689A4214DA114AFB6852F82330002B0AD00E4A1B
S32D00011EB8FB6852F823301846FCF7EFF903461A460A4B1A70FB680133FB60E5E7054B00225A60044B00221A6065
S32D00011EE0044B1B7818461037BD4680BDF01B0020FC1B0020F81B002080B582B000AF786039607B68012B07D109
S32D00011F083B684FF6FF72934202D10348FFF7A8FF00BF0837BD4680BDF01B002080B500AF4FF6FF710120FFF7A8
S32D00011F30E3FF80BD80B483B000AF78600A4B03F580531B6B084A43F0010302F580521363064B5B68054A43F071
S32D00011F583203536000BF0C37BD4680BC704700BF0070044000000A4038B5084C4FF41E652846E56001F09CF97D
S32D00011F80A06020B10023C0E90053606038BDE060606038BD641C002081F0004102E000BF83F0004330B54FEAD1
S32D00011FA841044FEA430594EA050F08BF90EA020F1FBF54EA000C55EA020C7FEA645C7FEA655C00F0E2804FEA0D
S32D00011FD05454D4EB5555B8BF6D420CDD2C4480EA020281EA030382EA000083EA010180EA020281EA0303362D56
S32D00011FF888BF30BD11F0004F4FEA01314FF4801C4CEA113102D0404261EB410113F0004F4FEA03334CEA133355
S32D0001202002D0524263EB430394EA050F00F0A780A4F10104D5F1200E0DDB02FA0EFC22FA05F2801841F1000194
S32D0001204803FA0EF2801843FA05F359410EE0A5F120050EF1200E012A03FA0EFC28BF4CF0020C43FA05F3C018BF
S32D0001207051EBE37101F0004507D54FF0000EDCF1000C7EEB00006EEB0101B1F5801F1BD3B1F5001F0CD349088D
S32D000120985FEA30004FEA3C0C04F101044FEA445212F5800F80F09A80BCF1004F08BF5FEA500C50F1000041EB61
S32D000120C0045141EA050130BD5FEA4C0C404141EB0101013C28BFB1F5801FE9D291F0000F04BF01460020B1FAA5
S32D000120E881F308BF2033A3F10B03B3F120020CDA0C3208DD02F1140CC2F10C0201FA0CF021FA02F10CE002F112
S32D000121101402D8BFC2F1200C01FA02F120FA0CFCDCBF41EA0C019040E41AA2BF01EB0451294330BD6FEA040407
S32D000121381F3C1CDA0C340EDC04F11404C4F1200220FA04F001FA02F340EA030021FA04F345EA030130BDC4F107
S32D000121600C04C4F1200220FA02F001FA04F340EA0300294630BD21FA04F0294630BD94F0000F83F4801306BF15
S32D0001218881F480110134013D4EE77FEA645C18BF7FEA655C29D094EA050F08BF90EA020F05D054EA000C04BF91
S32D000121B01946104630BD91EA030F1EBF0021002030BD5FEA545C05D14000494128BF41F0004130BD14F580045A
S32D000121D83CBF01F5801130BD01F0004545F0FE4141F470014FF0000030BD7FEA645C1ABF194610467FEA655C0C
S32D000122001CBF0B46024650EA013406BF52EA033591EA030F41F4002130BD00BF90F0000F04BF0021704730B5F5
S32D000122284FF4806404F132044FF000054FF0000150E700BF90F0000F04BF0021704730B54FF4806404F132045A
S32D0001225010F0004548BF40424FF000013EE700BF42004FEAE2014FEA31014FEA02701FBF12F07F4393F07F4F06
S32D0001227881F06051704732F07F4208BF704793F07F4F04BF41F40021704730B54FF4607401F0004521F0004158
S32D000122A01CE700BF50EA010208BF704730B54FF000050AE050EA010208BF704730B511F0004502D5404261EBF4
S32D000122C841014FF4806404F132045FEA915C3FF4D8AE4FF003025FEADC0C18BF03325FEADC0C18BF033202EBB9
S32D000122F0DC02C2F1200300FA03FC20FA02F001FA03FE40EA0E0021FA02F11444BDE600BF70B54FF0FF0C4CF45B
S32D00012318E06C1CEA11541DBF1CEA135594EA0C0F95EA0C0F00F0DEF82C4481EA030621EA4C5123EA4C5350EA2A
S32D00012340013518BF52EA033541F4801143F4801338D0A0FB02CE4FF00005E1FB02E506F00042E0FB03E54FF0A9
S32D000123680006E1FB03569CF0000F18BF4EF0010EA4F1FF04B6F5007F64F5407404D25FEA4E0E6D4146EB060617
S32D0001239042EAC62141EA55514FEAC52040EA5E504FEACE2EB4F1FD0C88BFBCF5E06F1ED8BEF1004F08BF5FEA16
S32D000123B8500E50F1000041EB045170BD06F0004646EA010140EA020081EA0301B4EB5C04C2BFD4EB0C0541EA25
S32D000123E0045170BD41F480114FF0000E013C00F3AB8014F1360FDEBF002001F0004170BDC4F10004203C35DA54
S32D000124080C341BDC04F11404C4F1200500FA05F320FA04F001FA05F240EA020001F0004221F0004110EBD370A6
S32D0001243021FA04F642EB06015EEA430E08BF20EAD37070BDC4F10C04C4F1200500FA04F320FA05F001FA04F2CA
S32D0001245840EA020001F0004110EBD37041F100015EEA430E08BF20EAD37070BDC4F1200500FA05F24EEA020E99
S32D0001248020FA04F301FA05F243EA020321FA04F001F0004121FA04F220EA020000EBD3705EEA430E08BF20EA02
S32D000124A8D37070BD94F0000F0FD101F00046400041EB010111F4801F08BF013CF7D041EA060195F0000F18BF71
S32D000124D0704703F00046520043EB030313F4801F08BF013DF7D043EA0603704794EA0C0F0CEA135518BF95EABB
S32D000124F80C0F0CD050EA410618BF52EA4306D1D181EA030101F000414FF0000070BD50EA410606BF1046194637
S32D0001252052EA430619D094EA0C0F02D150EA013613D195EA0C0F05D152EA03361CBF104619460AD181EA03019E
S32D0001254801F0004141F0FE4141F470014FF0000070BD41F0FE4141F4780170BD70B54FF0FF0C4CF4E06C1CEA64
S32D0001257011541DBF1CEA135594EA0C0F95EA0C0F00F0A7F8A4EB050481EA030E52EA03354FEA013100F08880E0
S32D000125984FEA03334FF0805545EA131343EA12634FEA022245EA111545EA10654FEA00260EF000419D4208BF00
S32D000125C0964244F1FD0404F5407402D25B084FEA3202B61A65EB03055B084FEA32024FF480104FF4002CB6EBB2
S32D000125E8020E75EB030E22BFB61A754640EA0C005B084FEA3202B6EB020E75EB030E22BFB61A754640EA5C00BD
S32D000126105B084FEA3202B6EB020E75EB030E22BFB61A754640EA9C005B084FEA3202B6EB020E75EB030E22BFA4
S32D00012638B61A754640EADC0055EA060E18D04FEA051545EA16754FEA06164FEAC30343EA52734FEAC2025FEA0E
S32D000126601C1CC0D111F4801F0BD141EA00014FF000004FF0004CB6E711F4801F04BF01430020B4F1FD0C88BFAF
S32D00012688BCF5E06F3FF6AFAEB5EB030C04BFB6EB020C5FEA500C50F1000041EB045170BD0EF0004E4EEA113116
S32D000126B014EB5C04C2BFD4EB0C0541EA045170BD41F480114FF0000E013C90E645EA060E8DE60CEA135594EA46
S32D000126D80C0F08BF95EA0C0F3FF43BAF94EA0C0F0AD150EA01347FF434AF95EA0C0F7FF425AF104619462CE758
S32D0001270095EA0C0F06D152EA03353FF4FDAE1046194622E750EA410618BF52EA43067FF4C5AE50EA41047FF474
S32D000127280DAF52EA43057FF4EBAE12E74FF0FF3C06E000BF4FF0010C02E000BF4FF0010C4DF804CD4FEA410C49
S32D000127507FEA6C5C4FEA430C18BF7FEA6C5C1BD001B050EA410C0CBF52EA430C91EA030F02BF90EA020F002027
S32D00012778704710F1000F91EA030F58BF994208BF90422CBFD8176FEAE37040F0010070474FEA410C7FEA6C5C2E
S32D000127A002D150EA013C07D14FEA430C7FEA6C5CD6D152EA033CD3D05DF8040B704700BF8446104662468C46F6
S32D000127C81946634600E000BF01B5FFF7B7FF002848BF10F1000F01BD4DF808EDFFF7F4FF0CBF012000205DF858
S32D000127F008FB00BF4DF808EDFFF7EAFF34BF012000205DF808FB00BF4DF808EDFFF7E0FF94BF012000205DF89C
S32D0001281808FB00BF4DF808EDFFF7CEFF94BF012000205DF808FB00BF4DF808EDFFF7C4FF34BF012000205DF8AB
S32D0001284008FB00BF4FEA410212F5001215D211D56FF47873B3EB625212D94FEAC12343F0004343EA505311F056
S32D00012868004F23FA02F018BF404270474FF00000704750EA013005D111F0004008BF6FF0004070474FF00000FF
S32D00012890704700BF4A0011D212F5001211D20DD56FF47873B3EB62520ED44FEAC12343F0004343EA505323FA96
S32D000128B802F070474FF00000704750EA013002D14FF0FF3070474FF0000070474FEA4102B2F1E04324BFB3F52C
S32D000128E0001CDCF1FE5C0DD901F0004C4FEAC0024CEA5070B2F1004F40EB830008BF20F00100704711F0804F73
S32D0001290821D113F13872BCBF01F00040704741F480114FEA5252C2F11802C2F1200C10FA0CF320FA02F018BF62
S32D0001293040F001004FEAC1234FEAD32303FA0CFC40EA0C0023FA02F34FEA4303CCE77FEA625307D150EA013318
